:020000040800F2
:10000000002800208D1A00081D1A0008231A000875
:10001000291A00082F1A0008351A000800000000ED
:100020000000000000000000000000003B1A000873
:10003000471A000800000000531A00085F1A000861
:10004000D51A0008D51A0008D51A0008D51A0008D4
:10005000D51A0008D51A0008D51A0008D51A0008C4
:10006000D51A0008D51A0008D51A0008D51A0008B4
:10007000D51A0008D51A0008D51A0008D51A0008A4
:10008000D51A0008D51A0008D51A0008D51A000894
:10009000D51A0008D51A0008D51A0008D51A000884
:1000A000D51A0008D51A0008D51A0008D51A000874
:1000B000D51A0008D51A0008D51A0008D51A000864
:1000C000D51A0008D51A0008D51A0008D51A000854
:1000D000D51A00086D1A0008D51A0008D51A0008AC
:1000E000D51A0008D51A0008D51A0008000000002B
:1000F0000000000000000000000000000000000000
:0C01000000000000000000005FF808F1A3
:1001100010B5054C237833B9044B13B10448AFF341
:1001200000800123237010BD500200200000000059
:100130005C5A000808B5034B1BB103490348AFF3F1
:10014000008008BD00000000540200205C5A000836
:10015000034613F8012B002AFBD1181A0138704707
:1001600081F0004102E000BF83F0004330B54FEA68
:1001700041044FEA430594EA050F08BF90EA020FD5
:100180001FBF54EA000C55EA020C7FEA645C7FEA68
:10019000655C00F0E2804FEA5454D4EB5555B8BF8B
:1001A0006D420CDD2C4480EA020281EA030382EAFC
:1001B000000083EA010180EA020281EA0303362D8E
:1001C00088BF30BD11F0004F4FEA01314FF4801C61
:1001D0004CEA113102D0404261EB410113F0004F73
:1001E0004FEA03334CEA133302D0524263EB43032A
:1001F00094EA050F00F0A780A4F10104D5F1200EC8
:100200000DDB02FA0EFC22FA05F2801841F1000122
:1002100003FA0EF2801843FA05F359410EE0A5F1F6
:1002200020050EF1200E012A03FA0EFC28BF4CF027
:10023000020C43FA05F3C01851EBE37101F00045DD
:1002400007D54FF0000EDCF1000C7EEB00006EEBEA
:100250000101B1F5801F1BD3B1F5001F0CD3490874
:100260005FEA30004FEA3C0C04F101044FEA4452CB
:1002700012F5800F80F09A80BCF1004F08BF5FEA52
:10028000500C50F1000041EB045141EA050130BD32
:100290005FEA4C0C404141EB0101013C28BFB1F544
:1002A000801FE9D291F0000F04BF01460020B1FA8F
:1002B00081F308BF2033A3F10B03B3F120020CDA62
:1002C0000C3208DD02F1140CC2F10C0201FA0CF040
:1002D00021FA02F10CE002F11402D8BFC2F1200CA5
:1002E00001FA02F120FA0CFCDCBF41EA0C0190405B
:1002F000E41AA2BF01EB0451294330BD6FEA0404A4
:100300001F3C1CDA0C340EDC04F11404C4F120028E
:1003100020FA04F001FA02F340EA030021FA04F3A0
:1003200045EA030130BDC4F10C04C4F1200220FAF7
:1003300002F001FA04F340EA0300294630BD21FA35
:1003400004F0294630BD94F0000F83F4801306BFFB
:1003500081F480110134013D4EE77FEA645C18BFEF
:100360007FEA655C29D094EA050F08BF90EA020F86
:1003700005D054EA000C04BF1946104630BD91EA7E
:10038000030F1EBF0021002030BD5FEA545C05D181
:100390004000494128BF41F0004130BD14F58004C0
:1003A0003CBF01F5801130BD01F0004545F0FE4134
:1003B00041F470014FF0000030BD7FEA645C1ABF69
:1003C000194610467FEA655C1CBF0B46024650EAA0
:1003D000013406BF52EA033591EA030F41F40021CC
:1003E00030BD00BF90F0000F04BF0021704730B552
:1003F0004FF4806404F132044FF000054FF0000127
:1004000050E700BF90F0000F04BF0021704730B5E7
:100410004FF4806404F1320410F0004548BF4042BC
:100420004FF000013EE700BF42004FEAE2014FEA11
:1004300031014FEA02701FBF12F07F4393F07F4FEC
:1004400081F06051704732F07F4208BF704793F0EF
:100450007F4F04BF41F40021704730B54FF4607402
:1004600001F0004521F000411CE700BF50EA010205
:1004700008BF704730B54FF000050AE050EA0102AE
:1004800008BF704730B511F0004502D5404261EB1E
:1004900041014FF4806404F132045FEA915C3FF45F
:1004A000D8AE4FF003025FEADC0C18BF03325FEAFC
:1004B000DC0C18BF033202EBDC02C2F1200300FAAD
:1004C00003FC20FA02F001FA03FE40EA0E0021FAD2
:1004D00002F11444BDE600BF70B54FF0FF0C4CF4C0
:1004E000E06C1CEA11541DBF1CEA135594EA0C0F72
:1004F00095EA0C0F00F0DEF82C4481EA030621EAAD
:100500004C5123EA4C5350EA013518BF52EA0335E7
:1005100041F4801143F4801338D0A0FB02CE4FF099
:100520000005E1FB02E506F00042E0FB03E54FF0C9
:100530000006E1FB03569CF0000F18BF4EF0010EC1
:10054000A4F1FF04B6F5007F64F5407404D25FEABD
:100550004E0E6D4146EB060642EAC62141EA555170
:100560004FEAC52040EA5E504FEACE2EB4F1FD0CB2
:1005700088BFBCF5E06F1ED8BEF1004F08BF5FEA30
:10058000500E50F1000041EB045170BD06F00046E2
:1005900046EA010140EA020081EA0301B4EB5C048F
:1005A000C2BFD4EB0C0541EA045170BD41F4801187
:1005B0004FF0000E013C00F3AB8014F1360FDEBFAC
:1005C000002001F0004170BDC4F10004203C35DA88
:1005D0000C341BDC04F11404C4F1200500FA05F30B
:1005E00020FA04F001FA05F240EA020001F00042AC
:1005F00021F0004110EBD37021FA04F642EB060122
:100600005EEA430E08BF20EAD37070BDC4F10C044B
:10061000C4F1200500FA04F320FA05F001FA04F20F
:1006200040EA020001F0004110EBD37041F10001FB
:100630005EEA430E08BF20EAD37070BDC4F1200506
:1006400000FA05F24EEA020E20FA04F301FA05F26E
:1006500043EA020321FA04F001F0004121FA04F216
:1006600020EA020000EBD3705EEA430E08BF20EAE6
:10067000D37070BD94F0000F0FD101F00046400020
:1006800041EB010111F4801F08BF013CF7D041EAA2
:10069000060195F0000F18BF704703F000465200A6
:1006A00043EB030313F4801F08BF013DF7D043EA77
:1006B0000603704794EA0C0F0CEA135518BF95EA2D
:1006C0000C0F0CD050EA410618BF52EA4306D1D1B4
:1006D00081EA030101F000414FF0000070BD50EAD3
:1006E000410606BF1046194652EA430619D094EA5D
:1006F0000C0F02D150EA013613D195EA0C0F05D147
:1007000052EA03361CBF104619460AD181EA03019A
:1007100001F0004141F0FE4141F470014FF0000052
:1007200070BD41F0FE4141F4780170BD70B54FF0ED
:10073000FF0C4CF4E06C1CEA11541DBF1CEA13556D
:1007400094EA0C0F95EA0C0F00F0A7F8A4EB05044F
:1007500081EA030E52EA03354FEA013100F0888046
:100760004FEA03334FF0805545EA131343EA12630F
:100770004FEA022245EA111545EA10654FEA0026C4
:100780000EF000419D4208BF964244F1FD0404F57D
:10079000407402D25B084FEA3202B61A65EB0305D9
:1007A0005B084FEA32024FF480104FF4002CB6EB96
:1007B000020E75EB030E22BFB61A754640EA0C0016
:1007C0005B084FEA3202B6EB020E75EB030E22BF56
:1007D000B61A754640EA5C005B084FEA3202B6EB97
:1007E000020E75EB030E22BFB61A754640EA9C0056
:1007F0005B084FEA3202B6EB020E75EB030E22BF26
:10080000B61A754640EADC0055EA060E18D04FEAE3
:10081000051545EA16754FEA06164FEAC30343EA83
:1008200052734FEAC2025FEA1C1CC0D111F4801F50
:100830000BD141EA00014FF000004FF0004CB6E749
:1008400011F4801F04BF01430020B4F1FD0C88BFE8
:10085000BCF5E06F3FF6AFAEB5EB030C04BFB6EBF3
:10086000020C5FEA500C50F1000041EB045170BDE6
:100870000EF0004E4EEA113114EB5C04C2BFD4EB13
:100880000C0541EA045170BD41F480114FF0000E97
:10089000013C90E645EA060E8DE60CEA135594EA13
:1008A0000C0F08BF95EA0C0F3FF43BAF94EA0C0F16
:1008B0000AD150EA01347FF434AF95EA0C0F7FF48B
:1008C00025AF104619462CE795EA0C0F06D152EADF
:1008D00003353FF4FDAE1046194622E750EA4106C3
:1008E00018BF52EA43067FF4C5AE50EA41047FF4D4
:1008F0000DAF52EA43057FF4EBAE12E74FF0FF3C39
:1009000006E000BF4FF0010C02E000BF4FF0010C09
:100910004DF804CD4FEA410C7FEA6C5C4FEA430C82
:1009200018BF7FEA6C5C1BD001B050EA410C0CBFD1
:1009300052EA430C91EA030F02BF90EA020F002033
:10094000704710F1000F91EA030F58BF994208BF9A
:1009500090422CBFD8176FEAE37040F00100704757
:100960004FEA410C7FEA6C5C02D150EA013C07D1AE
:100970004FEA430C7FEA6C5CD6D152EA033CD3D0F9
:100980005DF8040B704700BF8446104662468C46F3
:100990001946634600E000BF01B5FFF7B7FF002826
:1009A00048BF10F1000F01BD4DF808EDFFF7F4FF4F
:1009B0000CBF012000205DF808FB00BF4DF808EDDA
:1009C000FFF7EAFF34BF012000205DF808FB00BFFD
:1009D0004DF808EDFFF7E0FF94BF012000205DF81F
:1009E00008FB00BF4DF808EDFFF7CEFF94BF0120D4
:1009F00000205DF808FB00BF4DF808EDFFF7C4FFCD
:100A000034BF012000205DF808FB00BF4FEA410C15
:100A10007FEA6C5C02D150EA013C0AD14FEA430CF8
:100A20007FEA6C5C02D152EA033C02D14FF0000035
:100A300070474FF0010070474FEA410212F5001273
:100A400015D211D56FF47873B3EB625212D94FEA15
:100A5000C12343F0004343EA505311F0004F23FAFF
:100A600002F018BF404270474FF00000704750EA54
:100A7000013005D111F0004008BF6FF00040704711
:100A80004FF00000704700BF4FEA4102B2F1E0436F
:100A900024BFB3F5001CDCF1FE5C0DD901F0004C65
:100AA0004FEAC0024CEA5070B2F1004F40EB8300B5
:100AB00008BF20F00100704711F0804F21D113F1E1
:100AC0003872BCBF01F00040704741F480114FEA1A
:100AD0005252C2F11802C2F1200C10FA0CF320FAA3
:100AE00002F018BF40F001004FEAC1234FEAD323C0
:100AF00003FA0CFC40EA0C0023FA02F34FEA43032A
:100B0000CCE77FEA625307D150EA01331EBF4FF0B2
:100B1000FE4040F44000704701F0004040F0FE40CD
:100B200040F40000704700BF80F0004002E000BFCA
:100B300081F0004142001FBF5FEA410392EA030FC8
:100B40007FEA226C7FEA236C6AD04FEA1262D2EB12
:100B50001363C1BFD218414048404140B8BF5B4217
:100B6000192B88BF704710F0004F40F4000020F0B0
:100B70007F4018BF404211F0004F41F4000121F0C6
:100B80007F4118BF494292EA030F3FD0A2F1010210
:100B900041FA03FC10EB0C00C3F1200301FA03F14E
:100BA00000F0004302D5494260EB4000B0F5000F71
:100BB00013D3B0F1807F06D340084FEA310102F130
:100BC0000102FE2A51D2B1F1004F40EBC25008BFE2
:100BD00020F0010040EA03007047490040EB0000AC
:100BE000013A28BFB0F5000FEDD2B0FA80FCACF1AD
:100BF000080CB2EB0C0200FA0CF0AABF00EBC250DA
:100C000052421843BCBFD0401843704792F0000FC7
:100C100081F4000106BF80F400000132013BB5E71A
:100C20004FEA41037FEA226C18BF7FEA236C21D090
:100C300092EA030F04D092F0000F08BF08467047F5
:100C400090EA010F1CBF0020704712F07F4F04D1C3
:100C5000400028BF40F00040704712F100723CBFD6
:100C600000F50000704700F0004343F0FE4040F400
:100C7000000070477FEA226216BF08467FEA2363BE
:100C80000146420206BF5FEA412390EA010F40F4A9
:100C9000800070474FF0000304E000BF10F00043F5
:100CA00048BF40425FEA000C08BF704743F09643DC
:100CB00001464FF000001CE050EA010208BF7047F7
:100CC0004FF000030AE000BF50EA010208BF70477E
:100CD00011F0004302D5404261EB41015FEA010C93
:100CE00002BF84460146002043F0B64308BFA3F18B
:100CF0008053A3F50003BCFA8CF2083AA3EBC2536D
:100D000010DB01FA02FC634400FA02FCC2F120028B
:100D1000BCF1004F20FA02F243EB020008BF20F0C2
:100D20000100704702F1200201FA02FCC2F1200228
:100D300050EA4C0021FA02F243EB020008BF20EA1D
:100D4000DC7070474FEA4002B2F1FE4F0FD34FF014
:100D50009E03B3EB12620DD94FEA002343F0004328
:100D600010F0004F23FA02F018BF404270474FF0D6
:100D70000000704712F1610F01D1420205D110F05D
:100D8000004008BF6FF0004070474FF00000704710
:100D90002DE9B0438EB000AFC7E90201C7E90023D7
:100DA00085A3D3E90023D7E90201FFF795FB0246AB
:100DB0000B46104619464FF00002834BFFF7B6FC76
:100DC00002460B46C7E902237BA3D3E90023D7E9F8
:100DD0000001FFF781FB02460B46104619464FF013
:100DE0000002794BFFF7A2FC02460B46C7E900233D
:100DF00071A3D3E90023D7E91401FFF76DFB024685
:100E00000B46104619464FF000026F4BFFF78EFC61
:100E100002460B46C7E9142367A3D3E90023D7E9A9
:100E20001601FFF759FB02460B46104619464FF0D4
:100E30000002654BFFF77AFC02460B46C7E9162312
:100E4000D7E90223D7E91401FFF78EF902460B46D2
:100E5000C7E90C23D7E90023D7E91601FFF784F986
:100E600002460B46C7E90A234FF000024FF08043C9
:100E7000D7E90C01FFF75AFC02460B46104619460B
:100E800002F00CFD04460D464FF000024FF0804387
:100E9000D7E90C01FFF74AFC02460B4610461946FB
:100EA00002F0FCFC02460B4620462946FFF714FBE5
:100EB00002460B4690469946D7E9020102F0A8FC8B
:100EC00004460D46D7E9140102F0A2FC02460B4687
:100ED00020462946FFF700FB02460B4614461D46F6
:100EE0004FF000024FF08043D7E90A01FFF71EFCE4
:100EF00002460B461046194602F0D0FC02460B464D
:100F000020462946FFF7E8FA02460B4614461D46DE
:100F10004FF000024FF08043D7E90A01FFF706FCCB
:100F200002460B461046194602F0B8FC02460B4634
:100F300020462946FFF7D0FA02460B46404649466E
:100F4000FFF714F902460B46C7E90823D7E9080161
:100F500002F054FD04460D46D7E908234FF0000087
:100F60001A49FFF701F902460B461046194602F0EE
:100F700045FD02460B462046294602F0D5FC0246B6
:100F80000B46FFF7F3F802460B46C7E906230CA30E
:100F9000D3E90023D7E90601FFF79EFA02460B4684
:100FA000C7E90423D7E90423104619463837BD465C
:100FB000BDE8B083AFF30080182D4454FB210940F5
:100FC0000000000000E3B840008066400000F03FF1
:100FD00080B584B000AF78600B46FB707868FFF78F
:100FE000B7F80346FB60FB687A681344FA781A7016
:100FF000FB6801337A68134400221A7000BF10376F
:10100000BD4680BD80B582B000AF786039607B6836
:10101000002B1DD03B68002B1ADB7868FFF798F88F
:1010200002463B689A4213D90BE03B6801337A6869
:101030001A443B6879680B4412781A703B68013394
:101040003B603B687A6813441B78002BEDD100E0CD
:1010500000BF0837BD4680BD80B584B000AF786062
:101060000023FB601AE0FB687A6813441B78FB726C
:10107000FB7A01330F4A13441B7803F00403002B5F
:1010800009D1FB7A2E2B06D0FB7A202B03D0F968EE
:101090007868FFF7B7FFFB680133FB607868FFF7FC
:1010A00057F80246FB689A42DDD800BF00BF1037F0
:1010B000BD4680BD825B000880B582B000AF78601D
:1010C0007868FFF745F803469AB2642379680348C5
:1010D00001F044FD00BF0837BD4680BD6C02002012
:1010E00080B586B000AF786000237B6100233B6150
:1010F0000DE03B697A6813441B78FB73FB7B2E2B56
:1011000002D17B6901337B613B6901333B617868C4
:10111000FFF71EF802463B699A42EAD87B69022B28
:1011200001DD002300E0012318461837BD4680BDCD
:1011300080B483B000AF0346FB71FB79302B01D143
:1011400000232EE0FB79312B01D1012329E0FB792B
:10115000322B01D1022324E0FB79332B01D103236D
:101160001FE0FB79342B01D104231AE0FB79352BE6
:1011700001D1052315E0FB79362B01D1062310E0C0
:10118000FB79372B01D107230BE0FB79382B01D1F9
:10119000082306E0FB79392B01D1092301E04FF048
:1011A000FF3318460C37BD4680BC7047B0B58CB0D5
:1011B00000AF78600023BB624FF000024FF00003E5
:1011C000C7E908230023FB610023BB6100237B6187
:1011D00015E07B697A6813441B782E2B02D101231A
:1011E000BB6209E0BB6A002B03D1FB690133FB61E1
:1011F00002E0BB690133BB617B6901337B617868C5
:10120000FEF7A6FF02467B699A42E2D8BB69FB6201
:10121000FB693B61BB69BB600023FB6066E0FB6868
:101220007A6813441B782E2B5CD0FA68FB699A42CB
:101230002ADAFB687A6813441B781846FFF778FFB0
:1012400003461846FFF7DEF804460D463B69013BAE
:101250003B613869FFF7D6F802460B464FF00000B5
:10126000294902F063FB02460B4620462946FFF758
:1012700033F902460B46D7E90801FEF777FF02462D
:101280000B46C7E908232EE0FB687A6813441B78F5
:101290001846FFF74DFF03461846FFF7B3F804461C
:1012A0000D46FB6A013BFB62BA68FB6AD31A18461B
:1012B000FFF7A8F802460B464FF00000124902F073
:1012C00035FB02460B4620462946FFF72FFA024619
:1012D0000B46D7E90801FEF749FF02460B46C7E96E
:1012E000082300E000BFFB680133FB607868FEF76D
:1012F0002FFF0246FB689A4291D8D7E9082310468F
:1013000019463037BD46B0BD0000244080B58EB0D0
:1013100000AF786000237B6300233B637868FEF7AF
:1013200017FF0346013B7A68134400221A7000231A
:10133000FB622DE0FB6A7A6813441B78202B1AD0DD
:101340003B6B002B0BD1FB6A7A681A447B6B591CF0
:101350007963127838333B4403F81C2C15E0FB6AA0
:101360007A681A447B6B591C7963127838333B4492
:1013700003F82C2C09E007F11C027B6B13440022BC
:101380001A7001233B6300237B63FB6A0133FB621A
:101390007868FEF7DDFE0246FB6A9A42CAD807F17A
:1013A0000C027B6B134400221A7007F11C031846D1
:1013B000FFF7FCFE02460B460849C1E9002307F18E
:1013C0000C031846FFF7F2FE02460B460449C1E93A
:1013D000002300BF3837BD4680BD00BF100000208D
:1013E0001800002080B487B000AF78603960002317
:1013F0007B613B68013B3B6118E07B697A68134481
:101400001B78FB603B697A681A447B6979680B44F6
:1014100012781A703B697A681344FA68D2B21A706B
:101420007B6901337B613B69013B3B617A693B69C5
:101430009A42E2DB00BF00BF1C37BD4680BC70474C
:1014400080B586B000AFF860B9607A6000237B6138
:101450001DE0FA681D4B83FB02139910D317C91ABC
:101460000B469B000B445B00D11ACAB27B69591C26
:1014700079611946BB680B443032D2B21A70FB68EE
:10148000124A82FB03129210DB17D31AFB60FB682F
:10149000002BDED107E07B695A1C7A611A46BB68D3
:1014A000134430221A707A697B689A42F3DB7969B7
:1014B000B868FFF797FF7B69BA68134400221A7077
:1014C0007B6918461837BD4680BD00BF67666666F3
:1014D000B0B588B000AFF860B9607A60F868FFF71F
:1014E00031FC0346FB61F869FFF7D8FB0346194658
:1014F000F868FFF71DFB0346BB610022B968F86975
:10150000FFF79EFF78617B68002B2CD07B69BA685F
:1015100013442E221A70B869FEF786FF04460D4662
:101520007868FEF76FFF02460B464FF00000104947
:1015300002F0FCF902460B4620462946FEF7CCFF96
:1015400002460B4610461946FFF79EFA0346BB615A
:10155000B869FFF7F7FB7B690133BA6813447A680F
:101560001946FFF76DFF00BF2037BD46B0BD00BF75
:101570000000244098B500AF00F0AEFA00F05EF82D
:1015800000F0C2F800F096F801222549254801F044
:1015900068FB254B1B68002B30D1244B1C68234B68
:1015A0001B681846FEF7D4FD03469AB26423214611
:1015B0001C4801F0D3FA1D4B5C681C4B5B68184655
:1015C000FEF7C6FD03469AB264232146154801F092
:1015D000C5FA164B9C68154B9B681846FEF7B8FD7C
:1015E00003469AB2642321460E4801F0B7FA4FF43D
:1015F0007A7000F0D3FA0C4B01221A600A4B1B6878
:10160000012BC6D10A48FFF757FD0A48FFF754FDE2
:101610000948FFF751FD044B02221A60B9E700BFE9
:10162000E80200206C020020B4020020200000200C
:101630005C00002088000020AC00002080B590B045
:1016400000AF07F1180328220021184602F0D8F84D
:101650003B1D00221A605A609A60DA601A61022308
:10166000BB610123BB621023FB6200237B6307F194
:101670001803184600F012FE0346002B01D000F0BC
:1016800051F90F237B600023BB600023FB60002324
:101690003B6100237B613B1D0021184601F080F86F
:1016A0000346002B01D000F03DF900BF4037BD4696
:1016B00080BD000080B500AF114B124A1A60104B7C
:1016C0004FF4E1325A600E4B00229A600C4B00221C
:1016D000DA600B4B00221A61094B0C225A61084B4D
:1016E00000229A61064B0022DA61054801F0E6F912
:1016F0000346002B01D000F015F900BF80BD00BFEC
:101700006C0200200038014080B588B000AF07F1BE
:10171000100300221A605A609A60DA601E4B9B69BF
:101720001D4A43F0100393611B4B9B6903F01003A8
:10173000FB60FB68184B9B69174A43F020039361D9
:10174000154B9B6903F02003BB60BB68124B9B6980
:10175000114A43F0040393610F4B9B6903F00403A8
:101760007B607B6801224FF400510C4800F07EFD45
:101770004FF400533B6101237B610023BB610223D3
:10178000FB6107F110031946044800F0EBFB00BFB2
:101790002037BD4680BD00BF001002400010014050
:1017A0002DE9B0438CB004AF78604E4B1B68002B22
:1017B00058D04D4B1B78312B42D14C48FFF77CFC65
:1017C0004B48FFF7A3FD4B4BD3E900454A4BD3E908
:1017D00000894A4BD3E900234949D1E90001CDE909
:1017E0000201CDE9002342464B4620462946FFF739
:1017F000CFFA02460B464349C1E90023414BD3E9E6
:10180000002310461946FFF73FF907F10C030222A7
:101810001946FFF75DFE3C48FFF74EFC3B48FFF7DB
:101820004BFC3948FFF748FC07F10C031846FFF75B
:1018300043FC3748FFF740FC3348FFF73DFC4BE0E3
:101840003148FFF739FC3348FFF736FC284B0022BC
:101850001A70244B00221A60012223492E4801F0FD
:1018600000FA39E0204B1B782A2B0BD01E4B1B783B
:1018700019461F48FFF7ACFB01221B49264801F01F
:10188000F0F929E01A48FFF72BFC0346002B06D19C
:101890001D48FFF711FC1F48FFF70EFC1CE0144821
:1018A000FFF7DAFB1D48FFF707FC1748FFF704FCBA
:1018B0000F48FFF701FC1448FFF7FEFB094B01221C
:1018C0001A6001220849144801F0CBF900224FF4B4
:1018D0000051134800F0CAFC00BF2037BD46BDE8E8
:1018E000B08300BFB8020020E802002054010020AD
:1018F000C802002000000020080000201000002086
:1019000018000020C0020020505B0008A401002045
:10191000545B00082C0000206C020020080100200D
:101920000010014080B400AF72B600BFFEE70000B7
:1019300080B483B000AF0E4B9B690D4A43F00103A6
:1019400093610B4B9B6903F001037B607B68084B41
:10195000DB69074A43F08053D361054BDB6903F031
:1019600080533B603B6800BF0C37BD4680BC70476E
:101970000010024080B588B000AF786007F1100316
:1019800000221A605A609A60DA607B681B68204AFD
:10199000934239D11F4B9B691E4A43F480439361A4
:1019A0001C4B9B6903F48043FB60FB68194B9B69EC
:1019B000184A43F004039361164B9B6903F0040338
:1019C000BB60BB684FF400733B6102237B61032360
:1019D000FB6107F1100319460F4800F0C3FA4FF4FA
:1019E00080633B6100237B610023BB6107F110032F
:1019F0001946094800F0B6FA00220021252000F01F
:101A0000C8F9252000F0E1F900BF2037BD4680BDB0
:101A100000380140001002400008014080B400AFCF
:101A2000FEE780B400AFFEE780B400AFFEE780B40D
:101A300000AFFEE780B400AFFEE780B400AF00BFA8
:101A4000BD4680BC704780B400AF00BFBD4680BCBF
:101A5000704780B400AF00BFBD4680BC704780B502
:101A600000AF00F07FF800BF80BD000080B500AF80
:101A7000024801F01BF900BF80BD00BF6C020020CE
:101A800080B400AF00BFBD4680BC7047FFF7F8FFD1
:101A90000B480C490C4A002302E0D458C4500433CC
:101AA000C4188C42F9D3094A094C002301E01360A1
:101AB0000432A242FBD301F07FFEFFF75BFD7047CB
:101AC000000000204C020020085F000850020020A7
:101AD0000C030020FEE7000080B500AF084B1B6838
:101AE000074A43F010031360032000F047F90F206A
:101AF00000F008F8FFF71CFF0023184680BD00BF68
:101B00000020024080B582B000AF7860124B1A68A6
:101B1000124B1B7819464FF47A73B3FBF1F3B2FB07
:101B2000F3F3184600F05FF90346002B01D00123C0
:101B30000EE07B680F2B0AD8002279684FF0FF3047
:101B400000F027F9064A7B681360002300E00123B8
:101B500018460837BD4680BDDC010020E4010020A6
:101B6000E001002080B400AF054B1B781A46054BFE
:101B70001B681344034A136000BFBD4680BC704716
:101B8000E40100200803002080B400AF024B1B6872
:101B90001846BD4680BC70470803002080B584B05D
:101BA00000AF7860FFF7F0FFB8607B68FB60FB6810
:101BB000B3F1FF3F05D00A4B1B781A46FB6813446C
:101BC000FB6000BFFFF7E0FF0246BB68D31AFA686C
:101BD0009A42F7D800BF00BF1037BD4680BD00BF96
:101BE000E401002080B485B000AF78607B6803F02A
:101BF0000703FB600C4BDB68BB60BA684FF6FF0362
:101C00001340BB60FB681A02BB68134343F0BF6319
:101C100043F40033BB60044ABB68D36000BF143791
:101C2000BD4680BC704700BF00ED00E080B400AF4F
:101C3000044BDB681B0A03F007031846BD4680BC53
:101C4000704700BF00ED00E080B483B000AF0346F2
:101C5000FB7197F90730002B0BDBFB7903F01F02B8
:101C6000064997F907305B09012000FA02F241F8B2
:101C7000232000BF0C37BD4680BC704700E100E068
:101C800080B483B000AF03463960FB7197F9073029
:101C9000002B0ADB3B68DAB20C4997F907301201D6
:101CA000D2B20B4483F800230AE03B68DAB2084959
:101CB000FB7903F00F03043B1201D2B20B441A76F6
:101CC00000BF0C37BD4680BC704700BF00E100E09C
:101CD00000ED00E080B489B000AFF860B9607A60D0
:101CE000FB6803F00703FB61FB69C3F10703042BE7
:101CF00028BF0423BB61FB690433062B02D9FB69AF
:101D0000033B00E000237B614FF0FF32BB6902FA26
:101D100003F3DA43BB681A407B699A404FF0FF3106
:101D20007B6901FA03F3D9437B680B4013431846E0
:101D30002437BD4680BC704780B582B000AF786064
:101D40007B68013BB3F1807F01D301230FE00A4A96
:101D50007B68013B53600F214FF0FF30FFF790FF8E
:101D6000054B00229A60044B07221A600023184694
:101D70000837BD4680BD00BF10E000E080B582B0EE
:101D800000AF78607868FFF72DFF00BF0837BD46C9
:101D900080BD80B586B000AF0346B9607A60FB7342
:101DA00000237B61FFF742FF78617A68B968786940
:101DB000FFF790FF024697F90F3011461846FFF7DC
:101DC0005FFF00BF1837BD4680BD80B582B000AF51
:101DD0000346FB7197F907301846FFF735FF00BF40
:101DE0000837BD4680BD80B582B000AF78607868A6
:101DF000FFF7A2FF034618460837BD4680BD80B4F2
:101E000085B000AF78600023FB737B6893F82130C6
:101E1000DBB2022B08D07B6804229A637B68002225
:101E200083F82020012320E07B681B681A687B6808
:101E30001B6822F00E021A607B681B681A687B68B8
:101E40001B6822F001021A607B681A6C7B68DB6BEE
:101E5000012101FA02F25A607B68012283F82120F5
:101E60007B68002283F82020FB7B18461437BD4690
:101E700080BC704780B584B000AF78600023FB73EE
:101E80007B6893F82130DBB2022B05D07B680422FB
:101E90009A630123FB7351E07B681B681A687B68B7
:101EA0001B6822F00E021A607B681B681A687B6848
:101EB0001B6822F001021A607B681B68224A934269
:101EC00029D07B681B68214A934222D07B681B681B
:101ED0001F4A93421AD07B681B681E4A934212D055
:101EE0007B681B681C4A93420AD07B681B681B4AAC
:101EF000934202D14FF480130EE04FF080730BE059
:101F00004FF4803308E04FF4805305E04FF48073C2
:101F100002E0102300E00123114A53607B68012294
:101F200083F821207B68002283F820207B685B6B8C
:101F3000002B03D07B685B6B78689847FB7B184667
:101F40001037BD4680BD00BF080002401C000240A3
:101F50003000024044000240580002406C00024041
:101F60000000024080B48BB000AF7860396000237D
:101F70007B6200233B6269E101227B6A02FA03F380
:101F8000FB613B681B68FA691340BB61BA69FB6976
:101F90009A4240F058813B685B689A4A93425ED00F
:101FA000984A934275D8984A934258D0964A934299
:101FB0006FD8964A934252D0944A934269D8944A31
:101FC00093424CD0924A934263D8924A934246D06D
:101FD000904A93425DD8122B2AD8122B59D801A2CD
:101FE00052F823F05F200008392000084B20000839
:101FF0008D200008932000089320000893200008FB
:1020000093200008932000089320000893200008E4
:1020100093200008932000089320000893200008D4
:102020009320000893200008412000085520000854
:10203000794A934213D02CE03B68DB683B6229E08D
:102040003B68DB6804333B6224E03B68DB680833B1
:102050003B621FE03B68DB680C333B621AE03B6885
:102060009B68002B02D104233B6213E03B689B6812
:10207000012B05D108233B627B68FA691A6109E0EC
:1020800008233B627B68FA695A6103E000233B62E4
:1020900000E000BFBB69FF2B01D87B6801E07B68D3
:1020A00004337B61BB69FF2B02D87B6A9B0002E093
:1020B0007B6A083B9B003B617B691A680F213B6987
:1020C00001FA03F3DB431A40396A3B6901FA03F36F
:1020D0001A437B691A603B685B6803F08053002BEE
:1020E00000F0B1804D4B9B694C4A43F00103936172
:1020F0004A4B9B6903F00103BB60BB68484A7B6A9B
:102100009B08023352F82330FB607B6A03F0030321
:102110009B000F2202FA03F3DB43FA681340FB60D3
:102120007B68404A934213D07B683F4A93420DD06C
:102130007B683E4A934207D07B683D4A934201D177
:10214000032306E0042304E0022302E0012300E06D
:1021500000237A6A02F0030292009340FA68134364
:10216000FB602F497B6A9B080233FA6841F8232001
:102170003B685B6803F48013002B06D02D4B9A68F4
:102180002C49BB6913438B6006E02A4B9A68BB69F4
:10219000DB43284913408B603B685B6803F4001302
:1021A000002B06D0234BDA682249BB691343CB606E
:1021B00006E0204BDA68BB69DB431E491340CB6065
:1021C0003B685B6803F40033002B06D0194B5A6858
:1021D0001849BB6913434B6006E0164B5A68BB694C
:1021E000DB43144913404B603B685B6803F4803366
:1021F000002B21D00F4B1A680E49BB6913430B60AB
:1022000021E000BF00003210000031100000221059
:1022100000002110000012100000111000100240F8
:102220000000014000080140000C01400010014086
:1022300000140140000401400B4B1A68BB69DB43EA
:10224000094913400B607B6A01337B623B681A6863
:102250007B6A22FA03F3002B7FF48EAE00BF00BF2F
:102260002C37BD4680BC70470004014080B483B069
:1022700000AF78600B467B8013467B707B78002B29
:1022800003D07A887B681A6103E07B881A047B6834
:102290001A6100BF0C37BD4680BC704780B586B060
:1022A00000AF78607B68002B01D1012372E27B686C
:1022B0001B6803F00103002B00F08780924B5B68E2
:1022C00003F00C03042B0CD08F4B5B6803F00C0362
:1022D000082B12D18C4B5B6803F48033B3F5803F3D
:1022E0000BD1894B1B6803F40033002B6CD07B6847
:1022F0005B68002B68D101234CE27B685B68B3F517
:10230000803F06D1804B1B687F4A43F480331360C3
:102310002EE07B685B68002B0CD17B4B1B687A4AF4
:1023200023F480331360784B1B68774A23F48023AF
:1023300013601DE07B685B68B3F5A02F0CD1724B76
:102340001B68714A43F4802313606F4B1B686E4A0D
:1023500043F4803313600BE06B4B1B686A4A23F431
:1023600080331360684B1B68674A23F48023136033
:102370007B685B68002B13D0FFF706FC386108E030
:10238000FFF702FC02463B69D31A642B01D90323F1
:1023900000E25D4B1B6803F40033002BF0D014E027
:1023A000FFF7F2FB386108E0FFF7EEFB02463B69FE
:1023B000D31A642B01D90323ECE1534B1B6803F4BC
:1023C0000033002BF0D100E000BF7B681B6803F0F6
:1023D0000203002B63D04C4B5B6803F00C03002B13
:1023E0000BD0494B5B6803F00C03082B1CD1464B08
:1023F0005B6803F48033002B16D1434B1B6803F05A
:102400000203002B05D07B681B69012B01D001233F
:10241000C0E13D4B1B6823F0F8027B685B69DB0081
:10242000394913430B603AE07B681B69002B20D0CD
:10243000364B01221A60FFF7A7FB386108E0FFF76F
:10244000A3FB02463B69D31A022B01D90323A1E166
:102450002D4B1B6803F00203002BF0D02A4B1B68A6
:1024600023F0F8027B685B69DB00274913430B60AC
:1024700015E0264B00221A60FFF786FB386108E062
:10248000FFF782FB02463B69D31A022B01D90323D3
:1024900080E11D4B1B6803F00203002BF0D17B6829
:1024A0001B6803F00803002B3AD07B689B69002B64
:1024B00019D0174B01221A60FFF766FB386108E05C
:1024C000FFF762FB02463B69D31A022B01D90323B3
:1024D00060E10D4B5B6A03F00203002BF0D001209A
:1024E00000F0CEFA1CE00A4B00221A60FFF74CFB0A
:1024F00038610FE0FFF748FB02463B69D31A022B15
:1025000008D9032346E100BF001002400000424208
:1025100080044242924B5B6A03F00203002BE9D134
:102520007B681B6803F00403002B00F0A6800023E7
:10253000FB758B4BDB6903F08053002B0DD1884B6F
:10254000DB69874A43F08053D361854BDB6903F035
:102550008053BB60BB680123FB75824B1B6803F48F
:102560008073002B18D17F4B1B687E4A43F4807325
:102570001360FFF709FB386108E0FFF705FB02462F
:102580003B69D31A642B01D9032303E1754B1B6804
:1025900003F48073002BF0D07B68DB68012B06D13D
:1025A0006F4B1B6A6E4A43F0010313622DE07B6898
:1025B000DB68002B0CD16A4B1B6A694A23F00103CC
:1025C0001362674B1B6A664A23F0040313621CE024
:1025D0007B68DB68052B0CD1614B1B6A604A43F0BA
:1025E000040313625E4B1B6A5D4A43F001031362EE
:1025F0000BE05B4B1B6A5A4A23F001031362584BF2
:102600001B6A574A23F0040313627B68DB68002BC4
:1026100015D0FFF7B9FA38610AE0FFF7B5FA0246BC
:102620003B69D31A41F28832934201D90323B1E0C6
:102630004B4B1B6A03F00203002BEED014E0FFF7B4
:10264000A3FA38610AE0FFF79FFA02463B69D31A02
:1026500041F28832934201D903239BE0404B1B6A2D
:1026600003F00203002BEED1FB7D012B05D13C4B87
:10267000DB693B4A23F08053D3617B68DB69002B25
:1026800000F08780364B5B6803F00C03082B61D0A9
:102690007B68DB69022B46D1334B00221A60FFF7BF
:1026A00073FA386108E0FFF76FFA02463B69D31A04
:1026B000022B01D903236DE0294B1B6803F0007343
:1026C000002BF0D17B681B6AB3F5803F08D1244B07
:1026D0005B6823F400327B689B68214913434B609D
:1026E0001F4B5B6823F474127B68196A7B685B6A12
:1026F0000B431B4913434B601B4B01221A60FFF72E
:1027000043FA386108E0FFF73FFA02463B69D31A03
:10271000022B01D903233DE0114B1B6803F000732A
:10272000002BF0D035E0104B00221A60FFF72CFA96
:10273000386108E0FFF728FA02463B69D31A022BFA
:1027400001D9032326E0064B1B6803F00073002B1E
:10275000F0D11EE07B68DB69012B07D1012319E072
:102760000010024000700040600042420B4B5B686A
:10277000FB60FB6803F480327B681B6A9A4206D1D7
:10278000FB6803F470127B685B6A9A4201D00123F4
:1027900000E0002318461837BD4680BD00100240F7
:1027A00080B584B000AF786039607B68002B01D1C0
:1027B0000123D0E06A4B1B6803F007033A689A4292
:1027C00010D9674B1B6823F0070265493B68134328
:1027D0000B60634B1B6803F007033A689A4201D011
:1027E0000123B8E07B681B6803F00203002B20D0B4
:1027F0007B681B6803F00403002B05D0594B5B6812
:10280000584A43F4E06353607B681B6803F0080395
:10281000002B05D0534B5B68524A43F4605353601E
:10282000504B5B6823F0F0027B689B684D49134373
:102830004B607B681B6803F00103002B40D07B6872
:102840005B68012B07D1474B1B6803F40033002B57
:1028500015D101237FE07B685B68022B07D1414BD8
:102860001B6803F00073002B09D1012373E03D4B7B
:102870001B6803F00203002B01D101236BE0394BED
:102880005B6823F003027B685B68364913434B6047
:10289000FFF77AF9F8600AE0FFF776F90246FB687D
:1028A000D31A41F28832934201D9032353E02D4BCE
:1028B0005B6803F00C027B685B689B009A42EBD17B
:1028C000274B1B6803F007033A689A4210D2244B47
:1028D0001B6823F0070222493B6813430B60204B1F
:1028E0001B6803F007033A689A4201D0012332E0E3
:1028F0007B681B6803F00403002B08D0194B5B684E
:1029000023F4E0627B68DB68164913434B607B6805
:102910001B6803F00803002B09D0124B5B6823F4FB
:1029200060527B681B69DB000E4913434B6000F06B
:1029300021F802460B4B5B681B0903F00F030A49A1
:10294000CB5C22FA03F3094A1360094B1B68184653
:10295000FFF7D8F8002318461037BD4680BD00BFEA
:102960000020024000100240585B0008DC010020FB
:10297000E001002080B487B000AF0023FB6000239B
:10298000BB6000237B6100237B6000233B611E4B07
:102990005B68FB60FB6803F00C03042B02D0082B80
:1029A00003D027E0194B3B6127E0FB689B0C03F049
:1029B0000F03174AD35C7B60FB6803F48033002B62
:1029C00010D0114B5B685B0C03F00103114AD35C20
:1029D000BB607B680D4A03FB02F2BB68B2FBF3F3FA
:1029E0007B6104E07B680C4A02FB03F37B617B693B
:1029F0003B6102E0054B3B6100BF3B6918461C3759
:102A0000BD4680BC704700BF0010024000127A0033
:102A1000705B0008805B000800093D0080B400AFD7
:102A2000024B1B681846BD4680BC7047DC01002085
:102A300080B500AFFFF7F2FF0246054B5B681B0A4B
:102A400003F007030349CB5C22FA03F3184680BD69
:102A500000100240685B000880B500AFFFF7DEFFA2
:102A60000246054B5B68DB0A03F007030349CB5CB6
:102A700022FA03F3184680BD00100240685B00088C
:102A800080B485B000AF78600A4B1B680A4AA2FB8D
:102A900003235B0A7A6802FB03F3FB6000BFFB6859
:102AA0005A1EFA60002BF9D100BF00BF1437BD4693
:102AB00080BC7047DC010020D34D621080B582B02D
:102AC00000AF78607B68002B01D1012342E07B6876
:102AD00093F84130DBB2002B06D17B68002283F8EB
:102AE00040207868FEF746FF7B68242283F8412067
:102AF0007B681B68DA687B681B6822F40052DA6026
:102B0000786800F0C5FD7B681B681A697B681B68E4
:102B100022F490421A617B681B685A697B681B68C3
:102B200022F02A025A617B681B68DA687B681B689E
:102B300042F40052DA607B6800225A647B682022EB
:102B400083F841207B68202283F842207B680022A2
:102B50005A63002318460837BD4680BD80B58AB049
:102B600002AFF860B9603B601346FB8000237B61D5
:102B7000FB6893F84130DBB2202B6DD1BB68002B92
:102B800002D0FB88002B01D1012366E0FB68002204
:102B90005A64FB68212283F84120FEF7F5FF786133
:102BA000FB68FA889A84FB68FA88DA84FB689B6879
:102BB000B3F5805F08D1FB681B69002B04D10023AB
:102BC000FB61BB68BB6103E0BB68FB610023BB61C9
:102BD0002AE03B6800937B6900228021F86800F0BE
:102BE00014FB0346002B01D0032336E0FB69002BC6
:102BF0000BD1BB691B881A46FB681B68C2F308022D
:102C00005A60BB690233BB6107E0FB691A78FB6855
:102C10001B685A60FB690133FB61FB68DB8C9BB26C
:102C2000013B9AB2FB68DA84FB68DB8C9BB2002B19
:102C3000CFD13B6800937B6900224021F86800F007
:102C4000E4FA0346002B01D0032306E0FB682022B0
:102C500083F84120002300E0022318462037BD46B8
:102C600080BD80B584B000AFF860B9601346FB80CA
:102C7000FB6893F84230DBB2202B12D1BB68002BEB
:102C800002D0FB88002B01D101230BE0FB6800225E
:102C90001A63FB881A46B968F86800F024FB0346FB
:102CA00000E0022318461037BD4680BD80B5BAB09B
:102CB00000AF78607B681B681B68C7F8E4307B68EE
:102CC0001B68DB68C7F8E0307B681B685B69C7F886
:102CD000DC300023C7F8D8300023C7F8D430D7F849
:102CE000E43003F00F03C7F8D830D7F8D830002B02
:102CF0000FD1D7F8E43003F02003002B09D0D7F828
:102D0000E03003F02003002B03D0786800F001FCD2
:102D10005BE2D7F8D830002B00F0DE80D7F8DC304B
:102D200003F00103002B06D1D7F8E03003F49073D1
:102D3000002B00F0D180D7F8E43003F00103002B22
:102D40000BD0D7F8E03003F48073002B05D07B68FC
:102D50005B6C43F001027B685A64D7F8E43003F0FF
:102D60000403002B0BD0D7F8DC3003F00103002B59
:102D700005D07B685B6C43F002027B685A64D7F82D
:102D8000E43003F00203002B0BD0D7F8DC3003F063
:102D90000103002B05D07B685B6C43F004027B6869
:102DA0005A64D7F8E43003F00803002B11D0D7F8A9
:102DB000E03003F02003002B05D1D7F8DC3003F01E
:102DC0000103002B05D07B685B6C43F008027B6835
:102DD0005A647B685B6C002B00F0F281D7F8E4301A
:102DE00003F02003002B08D0D7F8E03003F02003D5
:102DF000002B02D0786800F08CFB7B681B685B6955
:102E000003F04003002B14BF01230023DBB2C7F8FB
:102E1000D4307B685B6C03F00803002B03D1D7F838
:102E2000D430002B4FD0786800F096FA7B681B688E
:102E30005B6903F04003002B41D07B681B681433AF
:102E4000C7F89C30D7F89C3053E8003FC7F898305B
:102E5000D7F8983023F04003C7F8D0307B681B6860
:102E60001433D7F8D020C7F8A820C7F8A430D7F873
:102E7000A410D7F8A82041E80023C7F8A030D7F85D
:102E8000A030002BD9D17B68DB6B002B13D07B6883
:102E9000DB6B7E4A5A637B68DB6B1846FEF7EAFF02
:102EA0000346002B16D07B68DB6B5B6B7A68D26BBA
:102EB000104698470EE0786800F093F90AE07868C9
:102EC00000F08FF906E0786800F08BF97B6800224B
:102ED0005A6475E100BF73E17B681B6B012B40F006
:102EE0004F81D7F8E43003F01003002B00F0488145
:102EF000D7F8E03003F01003002B00F041810023ED
:102F0000BB607B681B681B68BB607B681B685B6879
:102F1000BB60BB687B681B685B6903F04003002BE8
:102F200000F0B6807B68DB6B1B685B68A7F8BE307F
:102F3000B7F8BE30002B00F045817B689B8DB7F859
:102F4000BE209A4280F03E817B68B7F8BE20DA85C9
:102F50007B68DB6B9B69202B00F088807B681B689B
:102F60000C33C7F88830D7F8883053E8003FC7F8EB
:102F70008430D7F8843023F48073C7F8B8307B6886
:102F80001B680C33D7F8B820C7F89420C7F89030E6
:102F9000D7F89010D7F8942041E80023C7F88C3078
:102FA000D7F88C30002BD9D17B681B6814337B6732
:102FB0007B6F53E8003F3B673B6F23F00103C7F88B
:102FC000B4307B681B681433D7F8B420C7F880206E
:102FD000FB67F96FD7F8802041E80023BB67BB6F20
:102FE000002BE1D17B681B6814333B663B6E53E8D2
:102FF000003FFB65FB6D23F04003C7F8B0307B68F2
:103000001B681433D7F8B020FA66BB66B96EFA6E47
:1030100041E800237B667B6E002BE3D17B68202296
:1030200083F842207B6800221A637B681B680C339C
:10303000FB64FB6C53E8003FBB64BB6C23F01003E4
:10304000C7F8AC307B681B680C33D7F8AC20BA6586
:103050007B65796DBA6D41E800233B653B6D002BC4
:10306000E3D17B68DB6B1846FEF7C9FE7B68022262
:103070005A637B689A8D7B68DB8D9BB2D31A9BB2B7
:103080001946786800F0B6F89CE000BF1D340008CF
:103090007B689A8D7B68DB8D9BB2D31AA7F8CE3004
:1030A0007B68DB8D9BB2002B00F08E80B7F8CE30B2
:1030B000002B00F089807B681B680C33BB63BB6B03
:1030C00053E8003F7B637B6B23F49073C7F8C830F1
:1030D0007B681B680C33D7F8C8207A643B64396C72
:1030E0007A6C41E80023FB63FB6B002BE3D17B6828
:1030F0001B6814337B627B6A53E8003F3B623B6A88
:1031000023F00103C7F8C4307B681B681433D7F879
:10311000C4203A63FB62F96A3A6B41E80023BB6260
:10312000BB6A002BE3D17B68202283F842207B68B6
:1031300000221A637B681B680C333B613B6953E8D0
:10314000003FFB60FB6823F01003C7F8C0307B68CA
:103150001B680C33D7F8C020FA61BB61B969FA6902
:1031600041E800237B617B69002BE3D17B6802226D
:103170005A63B7F8CE301946786800F03BF823E080
:10318000D7F8E43003F08003002B09D0D7F8E03003
:1031900003F08003002B03D0786800F053F914E0AB
:1031A000D7F8E43003F04003002B0ED0D7F8E0301E
:1031B00003F04003002B08D0786800F092F904E097
:1031C00000BF02E000BF00E000BFE837BD4680BDA1
:1031D00080B483B000AF786000BF0C37BD4680BCC0
:1031E000704780B483B000AF786000BF0C37BD4635
:1031F00080BC704780B483B000AF78600B467B80A2
:1032000000BF0C37BD4680BC704780B590B000AFA2
:10321000F860B9603B601346FB7150E0BB6CB3F1E2
:10322000FF3F4CD0BB6C002B07D0FEF7ADFC024635
:103230003B68D31ABA6C9A4241D2FB681B680C33C4
:10324000BB62BB6A53E8003F7B627B6A23F4D073A6
:10325000FB63FB681B680C33FA6B7A633B63396B67
:103260007A6B41E80023FB62FB6A002BE5D1FB6827
:103270001B6814337B617B6953E8003F3B613B690A
:1032800023F00103BB63FB681B681433BA6B3A621B
:10329000FB61F9693A6A41E80023BB61BB69002B15
:1032A000E5D1FB68202283F84120FB68202283F8C7
:1032B0004220FB68002283F8402003230FE0FB68D4
:1032C0001B681A68BB681340BA689A420CBF012396
:1032D0000023DBB21A46FB799A429FD0002318469E
:1032E0004037BD4680BD80B485B000AFF860B9609E
:1032F0001346FB80FB68BA689A62FB68FA889A8575
:10330000FB68FA88DA85FB6800225A64FB6822228F
:1033100083F84220FB681B69002B07D0FB681B6801
:10332000DA68FB681B6842F48072DA60FB681B682D
:103330005A69FB681B6842F001025A61FB681B680E
:10334000DA68FB681B6842F02002DA600023184646
:103350001437BD4680BC704780B495B000AF78602C
:103360007B681B680C337B637B6B53E8003F3B63DC
:103370003B6B23F49073FB647B681B680C33FA6C23
:103380003A64FB63F96B3A6C41E80023BB63BB6BA7
:10339000002BE5D17B681B6814333B623B6A53E822
:1033A000003FFB61FB6923F00103BB647B681B6882
:1033B0001433BA6CFA62BB62B96AFA6A41E8002354
:1033C0007B627B6A002BE5D17B681B6B012B19D1DB
:1033D0007B681B680C33FB60FB6853E8003FBB60F5
:1033E000BB6823F010037B647B681B680C337A6C2A
:1033F000BA617B617969BA6941E800233B613B6945
:10340000002BE5D17B68202283F842207B680022D4
:103410001A6300BF5437BD4680BC704780B584B086
:1034200000AF78607B685B6AFB60FB680022DA852E
:10343000FB680022DA84F868FFF7D3FE00BF10377C
:10344000BD4680BD80B485B000AF78607B6893F8DE
:103450004130DBB2212B3ED17B689B68B3F5805FA6
:1034600014D17B681B69002B10D17B681B6AFB6041
:10347000FB681B881A467B681B68C2F308025A6007
:103480007B681B6A9A1C7B681A6208E07B681B6A6F
:10349000591C7A6811621A787B681B685A607B68CD
:1034A000DB8C9BB2013B9BB27A681946D184002B1E
:1034B0000FD17B681B68DA687B681B6822F080028A
:1034C000DA607B681B68DA687B681B6842F0400240
:1034D000DA60002300E0022318461437BD4680BCA2
:1034E000704780B582B000AF78607B681B68DA688F
:1034F0007B681B6822F04002DA607B68202283F838
:1035000041207868FFF764FE002318460837BD465F
:1035100080BD80B58CB000AF78607B6893F8423096
:10352000DBB2222B40F0AE807B689B68B3F5805FF6
:1035300017D17B681B69002B13D10023FB627B68CA
:103540009B6ABB627B681B685B689BB2C3F3080322
:103550009AB2BB6A1A807B689B6A9A1C7B689A62E3
:1035600026E07B689B6AFB620023BB627B689B68EA
:10357000B3F5805F07D07B689B68002B0AD17B681E
:103580001B69002B06D17B681B685B68DAB2FB6A9B
:103590001A7008E07B681B685B68DBB203F07F038E
:1035A000DAB2FB6A1A707B689B6A5A1C7B689A6263
:1035B0007B68DB8D9BB2013B9BB27A681946D18553
:1035C000002B5DD17B681B68DA687B681B6822F082
:1035D0002002DA607B681B68DA687B681B6822F46B
:1035E0008072DA607B681B685A697B681B6822F00E
:1035F00001025A617B68202283F842207B68002206
:103600005A637B681B6B012B35D17B6800221A63E0
:103610007B681B680C337B617B6953E8003F3B612F
:103620003B6923F010037B627B681B680C337A6A6A
:103630003A62FB61F9693A6A41E80023BB61BB6900
:10364000002BE5D17B681B681B6803F01003102B6F
:103650000AD10023FB607B681B681B68FB607B68EA
:103660001B685B68FB60FB687B689B8D194678680C
:10367000FFF7C0FD02E07868FEF792F8002302E051
:10368000002300E0022318463037BD4680BD00000D
:1036900080B584B000AF78607B681B681B6923F439
:1036A00040517B68DA687B681B680A431A617B6853
:1036B0009A687B681B691A437B685B691343BB602C
:1036C0007B681B68DB6823F4B05323F00C037A6833
:1036D0001268B9680B43D3607B681B685B6923F48D
:1036E00040717B689A697B681B680A435A617B68F2
:1036F0001B682C4A934203D1FFF7AEF9F86002E051
:10370000FFF796F9F860FA6813469B0013449A0095
:103710001A447B685B689B00B2FBF3F3224AA2FB6E
:1037200003235B091901FA6813469B0013449A00AE
:103730001A447B685B689B00B2FBF3F21A4BA3FB55
:1037400002035B09642000FB03F3D31A1B0132332D
:10375000154AA2FB03235B0903F0F0031944FA683E
:1037600013469B0013449A001A447B685B689B00D5
:10377000B2FBF3F20C4BA3FB02035B09642000FBDA
:1037800003F3D31A1B013233074AA2FB03235B095D
:1037900003F00F027B681B680A449A6000BF103771
:1037A000BD4680BD003801401F85EB51014B1868B4
:1037B000704700BFE801002070B500260C4D0D4C8D
:1037C000641BA410A64209D102F048F900260A4D54
:1037D0000A4C641BA410A64205D170BD55F8043BE9
:1037E00098470136EEE755F8043B98470136F2E773
:1037F000005F0008005F0008005F0008045F000829
:1038000003460244934200D1704703F8011BF9E7D5
:1038100030B5204A21F00043934287B006DC0022F5
:10382000002307B0BDE8304001F0A2B91A4A934224
:1038300005DD02460B46FCF797FC07B030BD02AA37
:1038400000F0EEFE00F00300012809D0022811D09C
:10385000B8B9DDE90423DDE9020101F089F9ECE7FB
:103860000090DDE90423DDE9020101F081FD01F1B1
:103870000041E2E7DDE90423DDE9020101F078F926
:10388000F5E70123DDE902010093DDE9042301F0FE
:103890006FFDD2E7FB21E93FFFFFEF7F30B5204A04
:1038A00021F00043934287B006DC002300220093FE
:1038B000002301F05DFD06E01A4A934205DD024651
:1038C0000B46FCF751FC07B030BD02AA00F0A8FE81
:1038D00000F00300012809D002280ED0C0B9DDE9AC
:1038E000020101230093DDE90423E2E7DDE904237B
:1038F000DDE9020101F03CF9E5E70123DDE9020120
:103900000093DDE9042301F033FD01F10041DAE722
:10391000DDE90423DDE9020101F02AF9F5E700BF42
:10392000FB21E93FFFFFEF7F00F08EB82DE9F84360
:1039300014461D468046894600F05AF9224606463E
:103940000F462B4620462946FDF760F8C8BB0022EB
:10395000002340464946FDF727F8B8B1002200236E
:1039600020462946FDF720F8002841D12046294667
:1039700001F06FFF28B30022002320462946FDF7FF
:103980001DF8F0B1FFF712FF222319E03046394647
:1039900001F05FFFC8B94046494601F05AFFA0B1A7
:1039A0002046294601F055FF78B132463B46304665
:1039B0003946FDF72BF80028E4D0FFF7F7FE212366
:1039C000036030463946BDE8F883002200233046C4
:1039D0003946FCF7E9FF0028F3D04046494601F09C
:1039E00038FF0028EDD02046294601F032FFC8E715
:1039F0000026014FE5E700BF0000F03FF8B506469E
:103A00000F4601F005F8324604460D463B46304667
:103A10003946FCF7FBFF90B90022002330463946B7
:103A2000FCF7CCFF58B1FFF7C1FE21230022036051
:103A3000002310461946FCF779FE04460D46204641
:103A40002946F8BD000000002DE9F84F924699463E
:103A500023F000421F46CAF10003DFF884E143EA85
:103A60000A0342EAD373734504460D4608D846421A
:103A700021F00043064343EAD67676458C4608D9C2
:103A800052464B4620462946FCF770FB04460D463D
:103A900019E009F1404606F5801656EA0A0603D1F8
:103AA000BDE8F84F01F048BDBE1706F0020646EA31
:103AB000D17653EA00010AD1022E67D0032E02D13B
:103AC0003BA5D5E9004520462946BDE8F88F52EAD6
:103AD0000A0106D1BCF1000F63DA37A5D5E900452C
:103AE000F1E772450FD1934206F1FF3607D1022E5E
:103AF00050D83C4B03EBC606D6E90045E3E7022E5F
:103B00004CD8394BF6E77345E4D09B1AB3F1747F78
:103B10004FEA235220DA002F01DA3C3220DB5246F2
:103B20004B4620462946FCF701FE01F08FFE01F0CE
:103B300003FD04460D46012E15D0022E17D0002E8F
:103B4000C1D01FA3D3E9002320462946FCF70CFB74
:103B50001DA3D3E9002316E01DA5D5E90045EAE73A
:103B600000240025E7E705F100431D46ABE714A359
:103B7000D3E9002320462946FCF7F6FA02460B4615
:103B800011A1D1E90001FCF7EFFA7FE70EA5D5E915
:103B9000004598E710A5D5E9004594E700240025E5
:103BA00091E70BA5D5E900458DE700BFAFF3008095
:103BB000182D4454FB2109C0182D4454FB21F9BF92
:103BC000075C143326A6A13C182D4454FB21094060
:103BD000182D4454FB21F93F182D4454FB21E93F93
:103BE0000000F07F885C0008A05C00080000000076
:103BF0002DE9F04F93B0CDE90223DDE9022727F04C
:103C00000046894656EA0201804611D1031889F41C
:103C1000002252419942824B934180F0B984DDE900
:103C2000022340464946FCF7A1FA83468C466FE0E2
:103C30007C4B29F000449C424D46824606DC01D173
:103C40000028ECD19E4201DC0FD172B105F1404554
:103C500005F5801555EA0A05E1D1DDE90232DB18E8
:103C600082F4002252419D42D5E7002D39DA6E4B95
:103C70009E4252DCA3F154739E4240F39C84331560
:103C8000A3F2FF33142B0FDDC3F1340322FA03F147
:103C900001FA03F3934240F08E8401F00101C1F177
:103CA0000203009382B15DE0002A59D1C3F11403ED
:103CB00046FA03F101FA03F3B34240F0798401F0CC
:103CC0000101C1F102030093584B9E4232D1002FF3
:103CD00080F26A8442464B4600205449FCF726FD98
:103CE000A3E700230093002A3CD14E4B9E42EBD128
:103CF00004F1404303F5801353EA0A0300F04884BB
:103D00004B4B9C420BDD002FC0F24884DDE902BC26
:103D10005846614613B0BDE8F08F0223E2E7002F5A
:103D20004FF0000B4FF0000CF2DADDE902B303F1C3
:103D3000004CEDE7B7F1804F06D142464B46404676
:103D40004946FCF7C9FB70E73A4B9F420AD1002D68
:103D500008DB4046494613B0BDE8F04F00F058BEBE
:103D6000002300934046494601F070FD83468C468F
:103D7000BAF1000F28D124B12C4B25F040429A42D1
:103D800022D1002F07DA5A46634600202749FCF764
:103D9000CDFC83468C46002DBADA009B04F14044EA
:103DA00004F58014234308D15A46634658466146B9
:103DB000FCF7DAF902460B4690E7009B012BA7D1EE
:103DC0000CF100439C46A3E7EB0F013B0C930C9ACC
:103DD000009B134304D142464B4640464946E7E721
:103DE000154B9E4240F3F68003F104739E42104B44
:103DF00009DD9C420CDC002F0CDA002013B0BDE87A
:103E0000F04F01F092BB9C42F5DB084B9C4215DD64
:103E1000002FF2DC002013B0BDE8F04F01F080BBB2
:103E20000000F0FF0000F07FFFFF3F430000F03F85
:103E3000FFFFEF3F0000E03F0000E041614600224D
:103E400058465F4BFCF790F955A3D3E9002304468D
:103E50000D46FCF741FB54A3D3E9002306460F4669
:103E600020462946FCF738FB002282468B46204636
:103E70002946544BFCF730FB02460B464CA1D1E9D6
:103E80000001FCF771F922462B46FCF725FB0246A0
:103E90000B4600204C49FCF767F922462B4680462A
:103EA000894620462946FCF717FB02460B4640464A
:103EB0004946FCF711FB40A3D3E90023FCF70CFBB8
:103EC00002460B4650465946FCF74EF94FF0000AA1
:103ED00002460B4604460D4630463946FCF746F985
:103EE00032463B4650468B46FCF73EF902460B46AF
:103EF00020462946FCF738F9DDE90267009B0C9A59
:103F0000013B13434FF000064FF000020CBF2F4B54
:103F10002B4B04460D46DDE90201CDE90023324674
:103F20003B46FCF721F952465B46FCF7D5FADDE942
:103F300002238046894620462946FCF7CDFA0246F0
:103F40000B4640464946FCF711F932463B4680464F
:103F5000894650465946FCF7BFFA04460D460B46C3
:103F6000024649464046CDE90245FCF7FFF8184BAA
:103F7000824699420F460E4640F3E58201F13F43E7
:103F800003F5E003034300F0DF81DDE900010022D7
:103F90000023FCF713FD003818BF01202EE700BFF7
:103FA000000000604715F73F44DF5DF80BAE543E5C
:103FB000555555555555D53FFE822B654715F73F4D
:103FC0000000F03F0000D03F0000E03F0000F0BFE5
:103FD000FFFF8F40D24B00222B4043B95846614629
:103FE000D04BFCF779FA6FF0340283460C46231568
:103FF000A3F2FF3313440B93CB4BC4F3130444F0ED
:104000007F559C4245F4401508DDC84B9C4240F367
:1040100099810B9BA5F5801501330B930026F300C6
:104020000D93C34B584603EBC603D3E9003429462E
:104030001A46CDE908342346FCF796F8DA462B46B3
:104040005246CDE90E01DDE90801FCF78FF8024682
:104050000B460020B749FCF769FB02460B46CDE949
:104060001001DDE90E01FCF737FACDE90601DDE9C3
:104070000634CDE9043400230022AB466D1045F030
:104080000055049305F50025DDE9048905EB864319
:104090004046494614461D46FCF71EFA02460B46AA
:1040A000DDE90E01FCF760F8DDE9082306460F465E
:1040B00020462946FCF758F802460B46504659461A
:1040C000FCF752F842464B46FCF706FA02460B460E
:1040D00030463946FCF748F8DDE91023FCF7FCF9D7
:1040E000DDE90623CDE9080110461946FCF7F4F98D
:1040F00079A3D3E9002304460D46FCF7EDF978A334
:10410000D3E90023FCF732F822462B46FCF7E4F90A
:1041100075A3D3E90023FCF729F822462B46FCF7C8
:10412000DBF973A3D3E90023FCF720F822462B46E2
:10413000FCF7D2F970A3D3E90023FCF717F8224665
:104140002B46FCF7C9F96EA3D3E90023FCF70EF860
:10415000224606460F462B4620462946FCF7BCF968
:1041600002460B4630463946FCF7B6F904460D4682
:10417000DDE9060142464B46FBF7F8FFDDE908237F
:10418000FCF7AAF922462B46FBF7F0FF424606460B
:104190000F464B4640464946FCF79EF90022664BC7
:1041A00082468B46FBF7E2FF32463B46FBF7DEFFDB
:1041B00000240D4622460B4640464946FCF78CF942
:1041C000002280468946204629465B4BFBF7CCFF00
:1041D00052465B46FBF7C8FF02460B46304639465F
:1041E000FBF7C2FFDDE90623FCF776F92246064617
:1041F0000F46DDE908012B46FCF76EF902460B4637
:1042000030463946FBF7B2FF002406460F46024609
:104210000B4640464946FBF7A9FF3BA3D3E90023E1
:1042200020460D46FCF758F942464B46CDE90601BB
:1042300020462946FBF798FF02460B463046394692
:10424000FBF792FF32A3D3E90023FCF745F932A331
:10425000D3E9002306460F4620462946FCF73CF9E1
:1042600002460B4630463946FBF780FF0D9A334B2A
:104270004FF0000A1344D3E90023FBF777FF804691
:104280000B988946FCF7BEF804460D460D9A2C4B58
:104290001344D3E900674246DDE906014B46FBF7CC
:1042A00065FF32463B46FBF761FF22462B46FBF794
:1042B0005DFF22462B4650468B46FBF755FF3246A4
:1042C0003B46FBF751FFDDE90623FBF74DFF0246B6
:1042D0000B46404649460DE6EF4E454A287ECA3F0A
:1042E00065DBC9934A86CD3F01411DA96074D13F6A
:1042F0004D268F515555D53FFFAB6FDBB66DDB3F7C
:10430000033333333333E33F000000E009C7EE3FAC
:10431000FD033ADC09C7EE3FF5015B14E02F3EBE1A
:104320000000F07F000040438E98030079B60B0038
:10433000B85C00080000F03F00000840D85C0008AE
:10434000C85C000801266AE69DA3D3E90023404625
:104350004946FBF70BFF2246CDE904012B465046A8
:104360003946FBF701FF02460B46DDE90401FCF785
:1043700043FB00287FF409AEA34A26F00043934292
:1043800040F301814FF4801A00201B15A3F2FE3385
:104390004AFA03F33344C3F30A529C4FA2F2FF32AA
:1043A0001741C3F3130A23EA0701C2F114024AF4C6
:1043B000801A0B464AFA02FA002E02462946204687
:1043C000B8BFCAF1000AFBF7CFFECDE90201DDE973
:1043D0000201002442464B46FBF7C8FE7AA3D3E90C
:1043E000002320460D46FCF777F8DDE90223064658
:1043F0000F4620462946FBF7B7FE02460B464046CD
:104400004946FBF7B1FE72A3D3E90023FCF764F839
:1044100071A3D3E900238046894620462946FCF74C
:104420005BF802460B4640464946FBF79FFE0446B2
:104430000D4602460B4630463946FBF797FE32469C
:104440003B4680468946FBF78FFE02460B462046D8
:104450002946FBF789FE424606460F464B46404634
:104460004946FCF739F85EA3D3E9002304460D461C
:10447000FCF732F85CA3D3E90023FBF775FE224674
:104480002B46FCF729F85AA3D3E90023FBF76EFE6D
:1044900022462B46FCF720F857A3D3E90023FBF76D
:1044A00063FE22462B46FCF717F855A3D3E90023F9
:1044B000FBF75CFE22462B46FCF70EF802460B4645
:1044C00040464946FBF750FE04460D4602460B4661
:1044D00040464946FCF700F80022CDE902014FF0C2
:1044E000804320462946FBF73FFE02460B46DDE9A6
:1044F0000201FCF71BF9324604460D463B46404696
:104500004946FBF7E9FF32463B46FBF72FFE0246E2
:104510000B4620462946FBF727FE42464B46FBF753
:1045200023FE02460B4600203949FBF71DFE01EB36
:104530000A54B4F5801F29DA524601F011FADDE978
:104540000023FFF7FEBB334B21F000479F427FF76C
:1045500013AF314B0B44034309D0DDE900010022C6
:104560000023FCF72BFA003818BF012053E4224641
:104570002B46FBF7F9FD42464B46FCF733FA002881
:104580003FF4FAAEE9E74FF0000A20E72146D6E70C
:104590004FF0000BDFF878C0FFF7BABB4FF0000B0D
:1045A0004FF0000CFFF7B4BB40464946FFF73DBB58
:1045B0000092FFF789BB0023FFF773BBAFF30080C6
:1045C000FE822B654715973C00000000432EE63F16
:1045D000EF39FAFE422EE63F396CA80C615C20BE32
:1045E000D0A4BE726937663EF16BD2C541BDBB3EF9
:1045F0002CDE25AF6A56113F93BDBE166CC1663FD7
:104600003E5555555555C53F0000E03FFFFF0F0093
:104610000000F03FFFCB904000346F3F00000000EF
:104620002DE9F04F1446C44A21F0004A8DB092455E
:10463000049107DC00220023C4E90001C4E902233D
:10464000002524E0BD4A924572DC049BBC4D002B42
:10465000ABA3D3E9002336DDFBF786FDAA4506466A
:104660000F4618D0A8A3D3E90023FBF77DFD02462F
:104670000B463046C4E900233946FBF775FDA2A37B
:10468000D3E90023FBF770FD0125C4E902012846A8
:104690000DB0BDE8F08F9EA3D3E90023FBF764FDC6
:1046A0009DA3D3E9002306460F46FBF75DFD0246B6
:1046B0000B463046C4E900233946FBF755FD96A367
:1046C000D3E90023DEE7FBF751FDAA4506460F4676
:1046D00016D08DA3D3E90023FBF748FD02460B4615
:1046E0003046C4E900233946FBF73EFD86A3D3E9F3
:1046F0000023FBF73BFD4FF0FF35C4E90201C6E79D
:1047000083A3D3E90023FBF731FD83A3D3E900237F
:1047100006460F46FBF72AFD02460B463046C4E923
:1047200000233946FBF720FD7BA3D3E90023E0E714
:10473000844A924500F3D58001F088F878A3D3E944
:10474000002306460F46FBF7C7FE00227E4BFBF711
:104750000DFDFCF771F90546FBF754FE02460B46CA
:10476000CDE9022366A3D3E90023FBF7B5FE024699
:104770000B4630463946FBF7F7FC63A3D3E9002329
:1047800080468946DDE90201FBF7A6FE1F2D06469D
:104790000F460EDC6D4B6A1E53F82230534508D08D
:1047A00032463B4640464946FBF7DEFCC4E9000181
:1047B00013E03B46324640464946FBF7D5FC4FEAFC
:1047C0002A530593C1F30A53C3EB1A5ABAF1100FD7
:1047D0001FDC02460B46C4E90023D4E9002A404608
:1047E00053464946FBF7C0FC32463B46FBF7BCFC50
:1047F0000B46C4E90201049902460029BFF647AFFF
:104800000AF10041C4E9011203F10043E3606D4283
:104810003DE73FA3D3E90023DDE90201FBF75CFE9E
:1048200006460F4602460B4640464946FBF79CFCAF
:1048300002460B4682468B4640464946FBF794FCAF
:1048400032463B46FBF790FC33A3D3E900230646F0
:104850000F46DDE90201FBF73FFE32463B46FBF720
:1048600083FC02460B4606460F4650465946FBF768
:104870007BFC059AC1F30A53D31A312B06DC02469E
:104880000B46D046D946C4E90023A6E726A3D3E9C0
:104890000023DDE90201FBF71FFE06460F46024634
:1048A0000B4650465946FBF75FFC02460B468046D6
:1048B000894650465946FBF757FC32463B46FBF7C4
:1048C00053FC1BA3D3E9002306460F46DDE9020192
:1048D000FBF702FE32463B46FBF746FC06460F4618
:1048E0005EE71B4A924535DD02460B46FBF73CFC72
:1048F000C4E90201C4E90001A2E600BFAFF30080F1
:1049000000004054FB21F93F3163621A61B4D03D8D
:104910000000601A61B4D03D7370032E8A19A33B66
:1049200083C8C96D305FE43F0000002E8A19A33BA5
:10493000C14920259A837B39FB21E93F7BD902407D
:10494000FB21F93FFB2139410000E03FE85C000812
:10495000FFFFEF7F4FEA2A55A5F21645AAEB055156
:104960000F460646FCF768F8FBF74CFD02460B467F
:1049700030463946CDE90623FBF7F6FB0022224BF1
:10498000FBF7AAFD0F460646FCF756F8FBF73AFD83
:1049900002460B4630463946CDE90823FBF7E4FBD7
:1049A0000022194BFBF798FD4FF003080026002763
:1049B000CDE90A010DF12809324679E802013B46AA
:1049C000C24608F1FF38FBF7EFFF0028F4D10F4B88
:1049D0002A46019302232146009306A8534600F07D
:1049E00085F9049B0546002BBFF651AED4E90021A2
:1049F00001F10043C4E90023D4E9022101F100439D
:104A0000C4E9022303E700BF00007041685D0008AD
:104A1000DFF858C12DE9F0413CEA010C06460D468D
:104A20000C460A46074603460FD102460B46FBF7E3
:104A300053FD02460B4630462946FBF797FB0646D8
:104A40000D4630462946BDE8F08100290EDC21F0F4
:104A5000004C5CEA0707F4D041B102460B46FBF775
:104A600083FB02460B46FBF761FEE8E7211575D094
:104A7000CC074FF00004C2F31302A1F2FF3742F457
:104A800080125EBFD90F5B0001EB4202D90F01EB30
:104A90004202162520464FF400117F105B00461895
:104AA0009642DEBF921B701864185200013D02EB63
:104AB000D3724FEA51014FEA4303F0D129464FF038
:104AC000200E4FF00046824206EB050C02DC13D1AB
:104AD0009C4511D8BCF1000F0CEB060543DA002D04
:104AE00041DB00F10108121A40469C4588BF02F1E3
:104AF000FF32A3EB0C0331444FEAD37CBEF1010E2D
:104B00000CEB42024FEA43034FEA5606DBD1134354
:104B100006D0481C0BBF71460131013421F0010160
:104B20006310490803F17F53E20703F5001348BF00
:104B300041F000410E4603EB075582E7DA0A1538CB
:104B40005B05002AFAD0D5020AD5C1F1200423FA68
:104B500004F44D1E8B402243411B89E70846F0E7D1
:104B600052000131EFE78046BDE700BF0000F07F53
:104B70002DE9F74F21F00046B6F1795F80460F46E8
:104B8000CDE9002304DAFBF757FF002800F0868008
:104B900042463B4640463946FBF79EFC00224E4BC0
:104BA00004460D46FBF798FC3FA3D3E90023824659
:104BB0008B4620462946FBF78FFC3DA3D3E9002313
:104BC000FBF7D4FA22462B46FBF786FC3AA3D3E93F
:104BD0000023FBF7C9FA22462B46FBF77DFC38A3DE
:104BE000D3E90023FBF7C2FA22462B46FBF774FCFD
:104BF00035A3D3E90023FBF7B7FA22462B46FBF790
:104C00006BFC33A3D3E90023FBF7B0FA22462B4613
:104C1000FBF762FC22462B46FBF75EFCDDE9002336
:104C200004460D4640463946FBF756FC0B46024605
:104C300029462046FBF798FA284B80469E42894633
:104C40000EDC02460B4650465946FBF78DFA0246EB
:104C500000200B462249FBF787FA03B0BDE8F08F2E
:104C60000024204B22469E42CCBF1F4DA6F50015C6
:104C70002B4600201A49FBF777FA224606460F46D4
:104C80002B4650465946FBF76FFA42464B46FBF718
:104C90006BFA02460B4630463946DCE700201049E5
:104CA000DBE700BFAFF30080D43888BEE9FAA8BDC7
:104CB000C4B1B4BD9EEE213EAD529C804F7E923E6B
:104CC0009015CB19A001FA3E7751C1166CC1563F21
:104CD0004C5555555555A53F0000E03F3233D33F65
:104CE0000000F03F0000E93F0000D23F2DE9F04F07
:104CF000ADF5197D08930691B64BA29912F1140FE8
:104D000053F82130A8BFD41E0293089BB8BF0024DB
:104D100003F1FF330793A4BF182394FBF3F46FF060
:104D2000170304FB033303EB020B079A029BA71A3A
:104D300003EB0208A39B002503EB87090022002355
:104D4000099020AE454514DD4FF00008089A20ABCD
:104D500003EBC2050DF5E07A029B984535DC099B13
:104D60000022A3F1080900232F460026CDE90023E5
:104D70001FE0EF420BD459F82500CDE90023FBF7E3
:104D800041FBDDE90023E6E802010135DAE71046E0
:104D90001946F8E7D7E90023F9E90201FBF79CFB84
:104DA00002460B46DDE90001FBF7E0F9CDE9000121
:104DB0000136079B083F9E42ECDDDDE9002308F148
:104DC0000108EAE802230835C6E7029B0CAA02EBB9
:104DD00083030B93A39B029E03EB84030A9398AB7C
:104DE00003EBC60353E9284570AB03EBC60AD04674
:104DF000B1460CAF0097B9F1000FA8F1080871DCBB
:104E00005A462046294600F0ABFD00224FF07F5362
:104E100004460D46FBF760FB00F022FD00226E4BBE
:104E2000FBF75AFB02460B4620462946FBF79CF946
:104E30000D460446FBF700FE0490FBF7E3FA02463A
:104E40000B4620462946FBF78FF9BBF1000F804641
:104E5000894670DD721E0CAB53F82200049CCBF126
:104E6000180140FA01F31C448B40C01A0CAB43F804
:104E70002200CBF11703049440FA03F30093009B44
:104E8000002B66DD00226FF07F411446049B013346
:104E90000493964200F3AC80BBF1000F07DDBBF139
:104EA000010F00F0B480BBF1020F00F0BA80009B4C
:104EB000022B4ED142464B4600204849FBF754F99D
:104EC00080468946002C44D05A460020434900F0D1
:104ED00047FD02460B4640464946FBF745F98046EA
:104EE000894636E000223E4B20462946FBF7F4FA7D
:104EF000FBF7A2FDFBF786FA02460B46CDE9042339
:104F00000022384BFBF7E8FA02460B4620462946BA
:104F1000FBF72AF9FBF790FD009B09F1FF3943F8F5
:104F2000040B0093DDE90401D8E90023FBF71EF927
:104F300004460D465FE705D1731E0CAA52F8230004
:104F4000C3159BE70022284BFBF74CFD00283ED100
:104F500000900022002340464946FBF725FD00282B
:104F600000F0B180741E2346002202998B425FDA62
:104F7000002A74D00CAB53F82430ABF1180B002B83
:104F800000F09F805A460020144900F0E9FCA24638
:104F900006460F464FF0000870ABDFF84490E5007E
:104FA00003EBC40BBAF1000F80F2C3802646002E3B
:104FB000C0F2F5800D4B4FF0000A079370AB4FF035
:104FC000000B4FF0000803EBC609A71BDBE0022330
:104FD000009357E7B05E0008000020400000F03F5B
:104FE0000000703E000070410000E03F705E00086D
:104FF0003B6844B91BB1C3F180733B6001231C467D
:105000000132043745E7CB1A3B602346F7E7721EAF
:105010000CAB53F82230C3F316030CA941F822302D
:1050200045E7721E0CAB53F82230C3F31503F4E7C7
:105030000CA951F82310013B0A4396E7013453F8B9
:10504000042D002AFAD0089B06F10108F51820ABC0
:1050500003EBC5053444444504DA2646BFE6012483
:105060000B9BECE70A9B4FF0000953F82800FBF775
:10507000C9F900260027099BC5E90001083B0093F8
:105080000495079B994505DDEAE9026708F10108E7
:105090000835E0E7DDF810C0009909F10109F1E9F0
:1050A000022300917CE80201CDF810C0FBF714FA4E
:1050B00002460B4630463946FBF758F806460F467F
:1050C000DFE7013C56E7CBF100024046494600F0DD
:1050D00047FC0022A44B04460D46FBF783FCF8B1C5
:1050E0000022A24B20462946FBF7F6F9FBF7A4FC69
:1050F0000746FBF787F900229B4BFBF7EDF90B46C0
:10510000024629462046FBF72FF8FBF795FC741C56
:105110000CAB43F826000BF1180B43F8247031E771
:1051200020462946FBF788FC0CAB344643F82600A2
:1051300028E70CAB53F82A00FBF764F932463B46EC
:10514000FBF7CAF942466BE802014B463046394646
:10515000FBF7C2F90AF1FF3A06460F4622E7DDF8EF
:105160001CC0F9E80223FCE80201CDF81CC0FBF7E3
:10517000B3F902460B4650465946FAF7F7FF824606
:105180008B4608F10108029B984501DCB845E6DD35
:1051900048AB03EBC707C7E900AB013E07E7A29B9B
:1051A000022B09DC002B32DC5AD0049B03F00700F1
:1051B0000DF5197DBDE8F08FA29B032BF5D148AB0F
:1051C0001D44AA46A346BBF1000F76DCAA46A346BF
:1051D000BBF1010F00F3908000273E46012C00F345
:1051E000AA80DDE94850DDE94A41009B002B40F0F0
:1051F000AC8003462A460698C0E9002322460B46A7
:10520000C0E902233A463346C0E90423CDE7002033
:10521000A046014648AB1D44B8F1000F3ADA009BA6
:10522000002B3ED001F1004502462B46069D01268B
:10523000C5E900230B46DDE94801FAF795FF8446EE
:105240000F4648ADB44205F108052CDA009B0BB1BE
:1052500007F1004762463B460699C1E90223A4E7ED
:10526000A29E48AB37461D44002C09DA009B0BB1C7
:1052700007F1004732463B460699C1E9002394E70F
:10528000304675E802233946FAF770FF013C0646BE
:105290000F46E9E775E80223FAF768FF08F1FF38DF
:1052A000BAE70D46C0E76046D5E900233946FAF76C
:1052B0005DFF013684460F46C4E7DAE900675AE924
:1052C000028932463B4640464946FAF74FFF0246BE
:1052D0000B46CDE9020140464946FAF745FF324602
:1052E0003B46FAF743FFDDE902236AE802010BF1CE
:1052F000FF3BCAE9002366E7DAE900895AE9026759
:1053000042464B4630463946FAF730FF02460B46D6
:10531000CDE9020130463946FAF726FF42464B46B0
:10532000FAF724FFDDE902236AE802010BF1FF3BF3
:10533000CAE900234CE7384675E802233146FAF7FC
:1053400015FF013C07460E4648E7069B00F100406A
:1053500001F1004106F10046C3E90104C3E9031766
:105360001D605E6121E700BF000070410000703EDB
:105370002DE9F04786B0CDE9002321F00043B3F1D9
:10538000795F82460C460E9D03DAFBF755FB002839
:1053900050D05246234650462146FBF79DF806461C
:1053A0000F4602460B4650462146FBF795F83EA3B2
:1053B000D3E900238046894630463946FBF78CF80E
:1053C0003BA3D3E90023FAF7CFFE32463B46FBF777
:1053D00083F839A3D3E90023FAF7C8FE32463B46E7
:1053E000FBF77AF836A3D3E90023FAF7BDFE32467D
:1053F0003B46FBF771F834A3D3E90023FAF7B6FE76
:10540000CDE90201DDB902460B4630463946FBF7CD
:1054100063F82FA3D3E90023FAF7A6FE42464B46D2
:10542000FBF75AF802460B4650462146FAF79EFE15
:1054300082460C465046214606B0BDE8F087002261
:10544000DDE90001244BFBF747F8DDE90223CDE954
:10545000040140464946FBF73FF802460B46DDE9AA
:105460000401FAF781FE32463B46FBF735F8DDE9E9
:105470000023FAF779FE16A3D3E9002306460F4668
:1054800040464946FBF728F802460B463046394667
:10549000FAF76CFE02460B4650462146FAF764FEC8
:1054A000C6E700BFAFF300807CD5CF5A3AD9E53DBF
:1054B000EB9C2B8AE6E55A3E7DFEB157E31DC73EC5
:1054C000D561C119A0012A3FA6F810111111813F21
:1054D000495555555555C53F0000E03F70B5044648
:1054E0000D461646FEF762F929460660204670BD55
:1054F00037B515461C4680B1104603F10041CDE991
:105500000001DDE9002328462146FAF7E5FF2222C3
:1055100003B0BDE83040FFF7E1BF10461946EEE7A3
:1055200000224FF08053FFF7E3BF00224FF0E0432B
:10553000FFF7DEBF000000002DE9F84FB64B21F069
:1055400000469E4204460D468B4617DDB34B9E42F5
:1055500001DC09D140B122462B4620462946FAF704
:1055600005FE04460D4605E0BBF1000FAC4C00F310
:105570002181AC4D20462946BDE8F88FAA4B9E42BA
:1055800011DCA3F1DE739E420ADC8BA3D3E9002376
:10559000FAF7ECFD0022A54BFBF72EFA0028E9D123
:1055A0004FF0FF3A27E000F051F9A14B04469E422C
:1055B0000D4600F3B880A3F550239E4200F39C8073
:1055C00002460B46FAF7D2FD0022984BFAF7CCFDC3
:1055D000002206460F464FF0804320462946FAF740
:1055E000C5FD02460B4630463946FBF79FF84FF0A3
:1055F000000A04460D4622462B4620462946FAF765
:105600006BFF02460B4680468946FAF765FF6CA39E
:10561000D3E9002306460F46FAF75EFF6AA3D3E9F3
:105620000023FAF7A3FD32463B46FAF755FF68A37D
:10563000D3E90023FAF79AFD32463B46FAF74CFFCE
:1056400065A3D3E90023FAF791FD32463B46FAF70A
:1056500043FF63A3D3E90023FAF788FD32463B46B4
:10566000FAF73AFF60A3D3E90023FAF77FFD424639
:105670004B46FAF731FF5EA3D3E900238046894603
:1056800030463946FAF728FF5BA3D3E90023FAF73F
:105690006BFD32463B46FAF71FFF59A3D3E90023BF
:1056A000FAF762FD32463B46FAF716FF56A3D3E9F6
:1056B0000023FAF759FD32463B46FAF70DFF54A393
:1056C000D3E90023FAF750FD32463B46FAF704FFD0
:1056D00002460B4640464946FAF748FD22462B460D
:1056E000FAF7FAFEBAF1FF3F02460B4644D12046D4
:1056F0002946FAF739FD34E700224C4BFAF734FD1E
:10570000002206460F4620462946484BFAF72EFD52
:1057100002460B4630463946FBF708F84FF0010ABF
:1057200004460D4667E7434B9E421ADA0022424B7D
:10573000FAF71AFD002206460F46204629463E4B40
:10574000FAF7CAFE0022394BFAF710FD02460B4663
:1057500030463946FAF7EAFF4FF0020A04460D4692
:1057600049E702460B4600203449FAF7DFFF4FF0C5
:10577000030A04460D463EE7314B324E06EBCA069D
:1057800003EBCA0ADAE90023FAF7EEFC22462B46BD
:10579000FAF7EAFC02460B46D6E90001FAF7E4FC08
:1057A000BBF1000F04460D46BFF6E4AE01F1004325
:1057B0001D46DFE6244DDDE69C7500883CE4377E1F
:1057C00011DA22E33AAD903FEB0D76244B7BA93FF3
:1057D000513DD0A0660DB13F6E204CC5CD45B73FC1
:1057E000FF8300922449C23F0D5555555555D53F6D
:1057F0002F6C6A2C44B4A2BF9AFDDE522DDEAD3F61
:105800006D9A74AFF2B0B33F711623FEC671BC3F00
:10581000C4EB98999999C93FFFFF0F440000F07FAE
:10582000182D4454FB21F9BFFFFFDB3F0000F03F80
:10583000FFFFF23F008003400000F83F0000F0BF90
:10584000E05E0008C05E0008FB21F93F21F0004146
:10585000704741F0004000F58010C00F7047000015
:105860002DE9F843C1F30A58A8F2FF36132E024679
:105870000B4607460C46054633DC002E14DA34A3EB
:10588000D3E90023FAF772FC00220023FBF7B4F8F7
:1058900038B1002C58DA24F000431D4301D0002514
:1058A0002D4C23462F4625E02C4A42FA06F801EA01
:1058B000080202431ED026A3D3E90023FAF756FCC0
:1058C00000220023FBF798F80028EAD0002CBEBF86
:1058D0004FF4801343FA06F6A419002524EA0804BD
:1058E000DFE7332E0ADDB6F5806F03D1FAF73EFC11
:1058F00007460B4638461946BDE8F8834FF0FF329D
:10590000A8F2134822FA08F818EA000FF2D010A300
:10591000D3E90023FAF72AFC00220023FBF76CF8F6
:105920000028BED0002C02DA142E03D1013425EA5F
:105930000805B6E70123C6F1340603FA06F6354436
:10594000BD4238BFE418F2E700252C46A9E700BFA6
:105950009C7500883CE4377E0000F0BFFFFF0F001D
:10596000F8B5C1F30A5604460D4617460B4696B9DC
:1059700021F00043034339D0334B0022FAF7ACFD4A
:10598000324B04469F420D460FDA2BA3D3E9002386
:10599000FAF7A2FD06E040F2FF7296420AD10246F3
:1059A000FAF7E4FB04460D4620E00B46C1F30A512A
:1059B000A1F1360640F2FE72B91991420EDD05F0F2
:1059C000004444F0FC4141F45F1141F4105120487F
:1059D00041F03C011AA3D3E90023D9E7002908DDEF
:1059E00023F0FF4323F4E00343EA01552046294610
:1059F000F8BD11F1350F12DA4CF250339F424FEAE5
:105A0000D5734FEAC374DCDC0BA3D3E9002344F065
:105A1000D27141F4B7310F4841F01F01B8E723F0CC
:105A2000FF43363123F4E00343EA0155204629467B
:105A30000022094BACE700BF59F3F8C21F6EA50165
:105A40009C7500883CE4377E00005043B03CFFFF6B
:105A50009C75008859F3F8C20000903CF8B500BF6F
:105A6000F8BC08BC9E467047F8B500BFF8BC08BC3F
:045A70009E46704797
:105A7800244750524D432C3039333132312E363988
:105A8800312C412C533430342E323637352C4E2CB1
:105A980030303135392E373536392C572C303030B7
:105AA8002E302C3030302E302C333030373233E239
:105AB800809E2C412A37430D0A0000002447504796
:105AC80047412C3039333132312E3639312C353487
