:020000040800F2
:1000000000280020A11D0008B11B0008B71B000834
:10001000BD1B0008C31B0008C91B0008000000002E
:10002000000000000000000000000000CF1B0008DE
:10003000DB1B000800000000E71B0008F31B0008A2
:10004000E91D0008E91D0008E91D0008E91D000878
:10005000E91D0008E91D0008E91D0008E91D000868
:10006000E91D0008E91D0008E91D0008E91D000858
:10007000E91D0008E91D0008E91D0008E91D000848
:10008000E91D0008E91D0008E91D0008E91D000838
:10009000E91D0008E91D0008E91D0008E91D000828
:1000A000E91D0008E91D0008E91D0008E91D000818
:1000B000E91D0008E91D0008E91D0008E91D000808
:1000C000E91D0008E91D0008E91D0008E91D0008F8
:1000D000E91D0008011C0008E91D0008E91D0008D1
:1000E000E91D0008E91D0008E91D000800000000E6
:1000F0000000000000000000000000000000000000
:0C01000000000000000000005FF808F1A3
:1001100010B5054C237833B9044B13B10448AFF341
:1001200000800123237010BD300200200000000079
:10013000346E000808B5034B1BB103490348AFF305
:10014000008008BD0000000034020020346E00086A
:10015000034613F8012B002AFBD1181A0138704707
:1001600081F0004102E000BF83F0004330B54FEA68
:1001700041044FEA430594EA050F08BF90EA020FD5
:100180001FBF54EA000C55EA020C7FEA645C7FEA68
:10019000655C00F0E2804FEA5454D4EB5555B8BF8B
:1001A0006D420CDD2C4480EA020281EA030382EAFC
:1001B000000083EA010180EA020281EA0303362D8E
:1001C00088BF30BD11F0004F4FEA01314FF4801C61
:1001D0004CEA113102D0404261EB410113F0004F73
:1001E0004FEA03334CEA133302D0524263EB43032A
:1001F00094EA050F00F0A780A4F10104D5F1200EC8
:100200000DDB02FA0EFC22FA05F2801841F1000122
:1002100003FA0EF2801843FA05F359410EE0A5F1F6
:1002200020050EF1200E012A03FA0EFC28BF4CF027
:10023000020C43FA05F3C01851EBE37101F00045DD
:1002400007D54FF0000EDCF1000C7EEB00006EEBEA
:100250000101B1F5801F1BD3B1F5001F0CD3490874
:100260005FEA30004FEA3C0C04F101044FEA4452CB
:1002700012F5800F80F09A80BCF1004F08BF5FEA52
:10028000500C50F1000041EB045141EA050130BD32
:100290005FEA4C0C404141EB0101013C28BFB1F544
:1002A000801FE9D291F0000F04BF01460020B1FA8F
:1002B00081F308BF2033A3F10B03B3F120020CDA62
:1002C0000C3208DD02F1140CC2F10C0201FA0CF040
:1002D00021FA02F10CE002F11402D8BFC2F1200CA5
:1002E00001FA02F120FA0CFCDCBF41EA0C0190405B
:1002F000E41AA2BF01EB0451294330BD6FEA0404A4
:100300001F3C1CDA0C340EDC04F11404C4F120028E
:1003100020FA04F001FA02F340EA030021FA04F3A0
:1003200045EA030130BDC4F10C04C4F1200220FAF7
:1003300002F001FA04F340EA0300294630BD21FA35
:1003400004F0294630BD94F0000F83F4801306BFFB
:1003500081F480110134013D4EE77FEA645C18BFEF
:100360007FEA655C29D094EA050F08BF90EA020F86
:1003700005D054EA000C04BF1946104630BD91EA7E
:10038000030F1EBF0021002030BD5FEA545C05D181
:100390004000494128BF41F0004130BD14F58004C0
:1003A0003CBF01F5801130BD01F0004545F0FE4134
:1003B00041F470014FF0000030BD7FEA645C1ABF69
:1003C000194610467FEA655C1CBF0B46024650EAA0
:1003D000013406BF52EA033591EA030F41F40021CC
:1003E00030BD00BF90F0000F04BF0021704730B552
:1003F0004FF4806404F132044FF000054FF0000127
:1004000050E700BF90F0000F04BF0021704730B5E7
:100410004FF4806404F1320410F0004548BF4042BC
:100420004FF000013EE700BF42004FEAE2014FEA11
:1004300031014FEA02701FBF12F07F4393F07F4FEC
:1004400081F06051704732F07F4208BF704793F0EF
:100450007F4F04BF41F40021704730B54FF4607402
:1004600001F0004521F000411CE700BF50EA010205
:1004700008BF704730B54FF000050AE050EA0102AE
:1004800008BF704730B511F0004502D5404261EB1E
:1004900041014FF4806404F132045FEA915C3FF45F
:1004A000D8AE4FF003025FEADC0C18BF03325FEAFC
:1004B000DC0C18BF033202EBDC02C2F1200300FAAD
:1004C00003FC20FA02F001FA03FE40EA0E0021FAD2
:1004D00002F11444BDE600BF70B54FF0FF0C4CF4C0
:1004E000E06C1CEA11541DBF1CEA135594EA0C0F72
:1004F00095EA0C0F00F0DEF82C4481EA030621EAAD
:100500004C5123EA4C5350EA013518BF52EA0335E7
:1005100041F4801143F4801338D0A0FB02CE4FF099
:100520000005E1FB02E506F00042E0FB03E54FF0C9
:100530000006E1FB03569CF0000F18BF4EF0010EC1
:10054000A4F1FF04B6F5007F64F5407404D25FEABD
:100550004E0E6D4146EB060642EAC62141EA555170
:100560004FEAC52040EA5E504FEACE2EB4F1FD0CB2
:1005700088BFBCF5E06F1ED8BEF1004F08BF5FEA30
:10058000500E50F1000041EB045170BD06F00046E2
:1005900046EA010140EA020081EA0301B4EB5C048F
:1005A000C2BFD4EB0C0541EA045170BD41F4801187
:1005B0004FF0000E013C00F3AB8014F1360FDEBFAC
:1005C000002001F0004170BDC4F10004203C35DA88
:1005D0000C341BDC04F11404C4F1200500FA05F30B
:1005E00020FA04F001FA05F240EA020001F00042AC
:1005F00021F0004110EBD37021FA04F642EB060122
:100600005EEA430E08BF20EAD37070BDC4F10C044B
:10061000C4F1200500FA04F320FA05F001FA04F20F
:1006200040EA020001F0004110EBD37041F10001FB
:100630005EEA430E08BF20EAD37070BDC4F1200506
:1006400000FA05F24EEA020E20FA04F301FA05F26E
:1006500043EA020321FA04F001F0004121FA04F216
:1006600020EA020000EBD3705EEA430E08BF20EAE6
:10067000D37070BD94F0000F0FD101F00046400020
:1006800041EB010111F4801F08BF013CF7D041EAA2
:10069000060195F0000F18BF704703F000465200A6
:1006A00043EB030313F4801F08BF013DF7D043EA77
:1006B0000603704794EA0C0F0CEA135518BF95EA2D
:1006C0000C0F0CD050EA410618BF52EA4306D1D1B4
:1006D00081EA030101F000414FF0000070BD50EAD3
:1006E000410606BF1046194652EA430619D094EA5D
:1006F0000C0F02D150EA013613D195EA0C0F05D147
:1007000052EA03361CBF104619460AD181EA03019A
:1007100001F0004141F0FE4141F470014FF0000052
:1007200070BD41F0FE4141F4780170BD70B54FF0ED
:10073000FF0C4CF4E06C1CEA11541DBF1CEA13556D
:1007400094EA0C0F95EA0C0F00F0A7F8A4EB05044F
:1007500081EA030E52EA03354FEA013100F0888046
:100760004FEA03334FF0805545EA131343EA12630F
:100770004FEA022245EA111545EA10654FEA0026C4
:100780000EF000419D4208BF964244F1FD0404F57D
:10079000407402D25B084FEA3202B61A65EB0305D9
:1007A0005B084FEA32024FF480104FF4002CB6EB96
:1007B000020E75EB030E22BFB61A754640EA0C0016
:1007C0005B084FEA3202B6EB020E75EB030E22BF56
:1007D000B61A754640EA5C005B084FEA3202B6EB97
:1007E000020E75EB030E22BFB61A754640EA9C0056
:1007F0005B084FEA3202B6EB020E75EB030E22BF26
:10080000B61A754640EADC0055EA060E18D04FEAE3
:10081000051545EA16754FEA06164FEAC30343EA83
:1008200052734FEAC2025FEA1C1CC0D111F4801F50
:100830000BD141EA00014FF000004FF0004CB6E749
:1008400011F4801F04BF01430020B4F1FD0C88BFE8
:10085000BCF5E06F3FF6AFAEB5EB030C04BFB6EBF3
:10086000020C5FEA500C50F1000041EB045170BDE6
:100870000EF0004E4EEA113114EB5C04C2BFD4EB13
:100880000C0541EA045170BD41F480114FF0000E97
:10089000013C90E645EA060E8DE60CEA135594EA13
:1008A0000C0F08BF95EA0C0F3FF43BAF94EA0C0F16
:1008B0000AD150EA01347FF434AF95EA0C0F7FF48B
:1008C00025AF104619462CE795EA0C0F06D152EADF
:1008D00003353FF4FDAE1046194622E750EA4106C3
:1008E00018BF52EA43067FF4C5AE50EA41047FF4D4
:1008F0000DAF52EA43057FF4EBAE12E74FF0FF3C39
:1009000006E000BF4FF0010C02E000BF4FF0010C09
:100910004DF804CD4FEA410C7FEA6C5C4FEA430C82
:1009200018BF7FEA6C5C1BD001B050EA410C0CBFD1
:1009300052EA430C91EA030F02BF90EA020F002033
:10094000704710F1000F91EA030F58BF994208BF9A
:1009500090422CBFD8176FEAE37040F00100704757
:100960004FEA410C7FEA6C5C02D150EA013C07D1AE
:100970004FEA430C7FEA6C5CD6D152EA033CD3D0F9
:100980005DF8040B704700BF8446104662468C46F3
:100990001946634600E000BF01B5FFF7B7FF002826
:1009A00048BF10F1000F01BD4DF808EDFFF7F4FF4F
:1009B0000CBF012000205DF808FB00BF4DF808EDDA
:1009C000FFF7EAFF34BF012000205DF808FB00BFFD
:1009D0004DF808EDFFF7E0FF94BF012000205DF81F
:1009E00008FB00BF4DF808EDFFF7CEFF94BF0120D4
:1009F00000205DF808FB00BF4DF808EDFFF7C4FFCD
:100A000034BF012000205DF808FB00BF4FEA410C15
:100A10007FEA6C5C02D150EA013C0AD14FEA430CF8
:100A20007FEA6C5C02D152EA033C02D14FF0000035
:100A300070474FF0010070474FEA410212F5001273
:100A400015D211D56FF47873B3EB625212D94FEA15
:100A5000C12343F0004343EA505311F0004F23FAFF
:100A600002F018BF404270474FF00000704750EA54
:100A7000013005D111F0004008BF6FF00040704711
:100A80004FF00000704700BF4FEA4102B2F1E0436F
:100A900024BFB3F5001CDCF1FE5C0DD901F0004C65
:100AA0004FEAC0024CEA5070B2F1004F40EB8300B5
:100AB00008BF20F00100704711F0804F21D113F1E1
:100AC0003872BCBF01F00040704741F480114FEA1A
:100AD0005252C2F11802C2F1200C10FA0CF320FAA3
:100AE00002F018BF40F001004FEAC1234FEAD323C0
:100AF00003FA0CFC40EA0C0023FA02F34FEA43032A
:100B0000CCE77FEA625307D150EA01331EBF4FF0B2
:100B1000FE4040F44000704701F0004040F0FE40CD
:100B200040F40000704700BF80F0004002E000BFCA
:100B300081F0004142001FBF5FEA410392EA030FC8
:100B40007FEA226C7FEA236C6AD04FEA1262D2EB12
:100B50001363C1BFD218414048404140B8BF5B4217
:100B6000192B88BF704710F0004F40F4000020F0B0
:100B70007F4018BF404211F0004F41F4000121F0C6
:100B80007F4118BF494292EA030F3FD0A2F1010210
:100B900041FA03FC10EB0C00C3F1200301FA03F14E
:100BA00000F0004302D5494260EB4000B0F5000F71
:100BB00013D3B0F1807F06D340084FEA310102F130
:100BC0000102FE2A51D2B1F1004F40EBC25008BFE2
:100BD00020F0010040EA03007047490040EB0000AC
:100BE000013A28BFB0F5000FEDD2B0FA80FCACF1AD
:100BF000080CB2EB0C0200FA0CF0AABF00EBC250DA
:100C000052421843BCBFD0401843704792F0000FC7
:100C100081F4000106BF80F400000132013BB5E71A
:100C20004FEA41037FEA226C18BF7FEA236C21D090
:100C300092EA030F04D092F0000F08BF08467047F5
:100C400090EA010F1CBF0020704712F07F4F04D1C3
:100C5000400028BF40F00040704712F100723CBFD6
:100C600000F50000704700F0004343F0FE4040F400
:100C7000000070477FEA226216BF08467FEA2363BE
:100C80000146420206BF5FEA412390EA010F40F4A9
:100C9000800070474FF0000304E000BF10F00043F5
:100CA00048BF40425FEA000C08BF704743F09643DC
:100CB00001464FF000001CE050EA010208BF7047F7
:100CC0004FF000030AE000BF50EA010208BF70477E
:100CD00011F0004302D5404261EB41015FEA010C93
:100CE00002BF84460146002043F0B64308BFA3F18B
:100CF0008053A3F50003BCFA8CF2083AA3EBC2536D
:100D000010DB01FA02FC634400FA02FCC2F120028B
:100D1000BCF1004F20FA02F243EB020008BF20F0C2
:100D20000100704702F1200201FA02FCC2F1200228
:100D300050EA4C0021FA02F243EB020008BF20EA1D
:100D4000DC7070474FEA4002B2F1FE4F0FD34FF014
:100D50009E03B3EB12620DD94FEA002343F0004328
:100D600010F0004F23FA02F018BF404270474FF0D6
:100D70000000704712F1610F01D1420205D110F05D
:100D8000004008BF6FF0004070474FF00000704710
:100D90002DE9B0438EB000AFC7E90201C7E90023D7
:100DA00085A3D3E90023D7E90201FFF795FB0246AB
:100DB0000B46104619464FF00002834BFFF7B6FC76
:100DC00002460B46C7E902237BA3D3E90023D7E9F8
:100DD0000001FFF781FB02460B46104619464FF013
:100DE0000002794BFFF7A2FC02460B46C7E900233D
:100DF00071A3D3E90023D7E91401FFF76DFB024685
:100E00000B46104619464FF000026F4BFFF78EFC61
:100E100002460B46C7E9142367A3D3E90023D7E9A9
:100E20001601FFF759FB02460B46104619464FF0D4
:100E30000002654BFFF77AFC02460B46C7E9162312
:100E4000D7E90223D7E91401FFF78EF902460B46D2
:100E5000C7E90C23D7E90023D7E91601FFF784F986
:100E600002460B46C7E90A234FF000024FF08043C9
:100E7000D7E90C01FFF75AFC02460B46104619460B
:100E800003F0F8FE04460D464FF000024FF0804399
:100E9000D7E90C01FFF74AFC02460B4610461946FB
:100EA00003F0E8FE02460B4620462946FFF714FBF6
:100EB00002460B4690469946D7E9020103F094FE9C
:100EC00004460D46D7E9140103F08EFE02460B4698
:100ED00020462946FFF700FB02460B4614461D46F6
:100EE0004FF000024FF08043D7E90A01FFF71EFCE4
:100EF00002460B461046194603F0BCFE02460B465E
:100F000020462946FFF7E8FA02460B4614461D46DE
:100F10004FF000024FF08043D7E90A01FFF706FCCB
:100F200002460B461046194603F0A4FE02460B4645
:100F300020462946FFF7D0FA02460B46404649466E
:100F4000FFF714F902460B46C7E90823D7E9080161
:100F500003F040FF04460D46D7E908234FF0000098
:100F60001A49FFF701F902460B461046194603F0ED
:100F700031FF02460B462046294603F0C1FE0246D9
:100F80000B46FFF7F3F802460B46C7E906230CA30E
:100F9000D3E90023D7E90601FFF79EFA02460B4684
:100FA000C7E90423D7E90423104619463837BD465C
:100FB000BDE8B083AFF30080182D4454FB210940F5
:100FC0000000000000E3B840008066400000F03FF1
:100FD00080B487B000AF7860396000237B613B68E4
:100FE000013B3B6118E07B697A6813441B78FB6026
:100FF0003B697A681A447B6979680B4412781A70E5
:101000003B697A681344FA68D2B21A707B6901337B
:101010007B613B69013B3B617A693B699A42E2DB58
:1010200000BF00BF1C37BD4680BC704780B586B08E
:1010300000AFF860B9607A6000237B611DE0FA6858
:101040001D4B83FB02139910D317C91A0B469B0043
:101050000B445B00D11ACAB27B69591C79611946ED
:10106000BB680B443032D2B21A70FB68124A82FB62
:1010700003129210DB17D31AFB60FB68002BDED142
:1010800007E07B695A1C7A611A46BB681344302218
:101090001A707A697B689A42F3DB7969B868FFF75E
:1010A00097FF7B69BA68134400221A707B6918465F
:1010B0001837BD4680BD00BF67666666B0B588B0AC
:1010C00000AFF860B9607A60F868FFF73BFE03464E
:1010D000FB61F869FFF7E2FD03461946F868FFF780
:1010E00027FD0346BB610022B968F869FFF79EFF40
:1010F00078617B68002B2CD07B69BA6813442E2260
:101100001A70B869FFF790F904460D467868FFF742
:1011100079F902460B464FF00000104903F0F2FD4A
:1011200002460B4620462946FFF7D6F902460B46F3
:1011300010461946FFF7A8FC0346BB61B869FFF7E4
:1011400001FE7B690133BA6813447A681946FFF7D8
:101150006DFF00BF2037BD46B0BD00BF000024407A
:1011600080B584B000AF78600B46FB707868FEF7FE
:10117000EFFF0346FB60FB687A681344FA781A7045
:10118000FB6801337A68134400221A7000BF1037DD
:10119000BD4680BD80B582B000AF786039607B68A5
:1011A000002B1DD03B68002B1ADB7868FEF7D0FFC0
:1011B00002463B689A4213D90BE03B6801337A68D8
:1011C0001A443B6879680B4412781A703B68013303
:1011D0003B603B687A6813441B78002BEDD100E03C
:1011E00000BF0837BD4680BD80B584B000AF7860D1
:1011F0000023FB601AE0FB687A6813441B78FB72DB
:10120000FB7A01330F4A13441B7803F00403002BCD
:1012100009D1FB7A2E2B06D0FB7A202B03D0F9685C
:101220007868FFF7B7FFFB680133FB607868FEF76B
:101230008FFF0246FB689A42DDD800BF00BF10371F
:10124000BD4680BD7A6F000880B582B000AF78607F
:101250007868FEF77DFF03469AB2642379680348F5
:1012600001F0EEFD00BF0837BD4680BD4C020020F6
:1012700080B586B000AF786000237B6100233B61BE
:101280000DE03B697A6813441B78FB73FB7B2E2BC4
:1012900002D17B6901337B613B6901333B61786833
:1012A000FEF756FF02463B699A42EAD87B69022B59
:1012B00001DD002300E0012318461837BD4680BD3C
:1012C00080B483B000AF0346FB71FB79303B184616
:1012D0000C37BD4680BC7047B0B58CB000AF7860AD
:1012E0000023BB624FF000037B6200233B620023BC
:1012F000FB610023BB6115E0BB697A6813441B786E
:101300002E2B02D10123BB6209E0BB6A002B03D163
:101310003B6A01333B6202E0FB690133FB61BB695D
:101320000133BB617868FEF713FF0246BB699A423E
:10133000E2D8FB69FB623B6A7B61FB69FB600023CF
:101340003B617CE03B697A6813441B782E2B72D09A
:101350003A693B6A9A4235DA3B697A6813441B78EA
:101360001846FFF7ADFF03461846FFF74BF8044653
:101370000D467B69013B7B617869FFF743F80246C4
:101380000B464FF00000344903F0BCFC02460B460C
:1013900020462946FFF7A0F802460B4614461D4694
:1013A000786AFFF741F802460B4620462946FEF7C9
:1013B000DDFE02460B4610461946FFF765FB034665
:1013C0007B6239E03B697A6813441B781846FFF763
:1013D00077FF03461846FFF715F804460D46FB6AEB
:1013E000013BFB62FA68FB6AD31A1846FFF70AF85A
:1013F00002460B464FF00000174903F083FC0246FB
:101400000B4620462946FFF791F902460B46144643
:101410001D46786AFFF708F802460B462046294623
:10142000FEF7A4FE02460B4610461946FFF72CFBBA
:1014300003467B6200E000BF3B6901333B61786893
:10144000FEF786FE02463B699A423FF67BAF7B6A17
:1014500018463037BD46B0BD0000244080B58EB080
:1014600000AF786000237B6300233B637868FEF75E
:101470006FFE0346013B7A68134400221A70002372
:10148000FB622DE0FB6A7A6813441B78202B1AD08C
:101490003B6B002B0BD1FB6A7A681A447B6B591C9F
:1014A0007963127838333B4403F81C2C15E0FB6A4F
:1014B0007A681A447B6B591C7963127838333B4441
:1014C00003F82C2C09E007F11C027B6B134400226B
:1014D0001A7001233B6300237B63FB6A0133FB62C9
:1014E0007868FEF735FE0246FB6A9A42CAD807F1D1
:1014F0000C027B6B134400221A7007F11C03184680
:10150000FFF7EAFE03461846FEF78EFF02460B463B
:101510000A49C1E9002307F10C031846FFF7DCFE76
:1015200003461846FEF780FF02460B460449C1E910
:10153000002300BF3837BD4680BD00BFB802002081
:10154000C002002080B592B000AF00F04FFC00F068
:101550009BF800F0FFF800F0D3F801223E493F4825
:1015600001F0F1FC3E4B1B68002B04D03C4B1B6888
:10157000B3F1FF3F5CD13B4B1B681846FFF764FE9D
:10158000384B5B681846FFF75FFE364B9B68184682
:10159000FFF75AFE4FF4FA7000F08AFC304B1B68DC
:1015A000B3F1FF3F40D03B1D19462E4800F04AFAE8
:1015B000BB681846FEF738FF02460B462A49C1E9C8
:1015C00000233B691846FEF72FFF02460B462749CA
:1015D000C1E90023BB6807F1340105221846FFF773
:1015E0006DFD2348FFF730FE2248FFF72DFE07F17F
:1015F00034031846FFF728FE1D48FFF725FE3B6918
:1016000007F1340105221846FFF758FD1A48FFF785
:101610001BFE07F134031846FFF716FE1448FFF7C8
:1016200013FE0F4B01221A604FF4FA7000F040FCD9
:101630000B4B1B68012B95D10D48FFF705FE0F489A
:10164000FFF702FE0E48FFF7FFFD0E48FFF7FCFD17
:10165000034B02221A6085E7E80200204C020020BA
:101660009402002000000020A8020020B002002008
:10167000286F00082C6F0008346F00083C00002021
:10168000680000208C00002080B590B000AF07F10A
:10169000180328220021184602F02CFA3B1D0022D4
:1016A0001A605A609A60DA601A610223BB610123F2
:1016B000BB621023FB6200237B6307F1180318460B
:1016C00000F05EFF0346002B01D000F02DF90F2340
:1016D0007B600023BB600023FB6000233B61002391
:1016E0007B613B1D0021184601F0CCF90346002B1D
:1016F00001D000F019F900BF4037BD4680BD0000A1
:1017000080B500AF114B124A1A60104B4FF4E13212
:101710005A600E4B00229A600C4B0022DA600B4B91
:1017200000221A61094B0C225A61084B00229A616F
:10173000064B0022DA61054801F032FB0346002B1C
:1017400001D000F0F1F800BF80BD00BF4C020020C6
:101750000038014080B483B000AF0E4B9B690D4A46
:1017600043F0200393610B4B9B6903F020037B60E4
:101770007B68084B9B69074A43F004039361054B60
:101780009B6903F004033B603B6800BF0C37BD4618
:1017900080BC7047001002402DE9B0438CB004AF0C
:1017A0007860514B1B68002B40F398804F4B1B68AF
:1017B000002B5FD04E4B1B78312B49D14D48FFF7A2
:1017C00043FD4D48FFF74AFE4C4BD3E900454C4BD7
:1017D000D3E900894B4BD3E900234B49D1E9000100
:1017E000CDE90201CDE9002342464B462046294679
:1017F000FFF7CEFA02460B464449C1E90023434BAA
:10180000D3E9002310461946FFF73EF907F10C0310
:1018100002221946FFF752FC3D48FFF715FD3D48EF
:10182000FFF712FD3A48FFF70FFD07F10C031846CA
:10183000FFF70AFD3848FFF707FD3548FFF704FDBD
:101840003348FFF701FD284B4FF0FF321A6045E0A7
:101850002F48FFF7F9FC3148FFF7F6FC264B002232
:101860001A70224B00221A60012221492C4801F0F3
:101870006AFB33E01E4B1B782A2B0BD01C4B1B78CA
:1018800019461D48FFF76CFC01221949244801F054
:101890005AFB23E01848FFF7EBFC0346002B06D168
:1018A0001B48FFF7D1FC1D48FFF7CEFC16E012489D
:1018B000FFF79AFC1B48FFF7C7FC1548FFF7C4FC6D
:1018C0000D48FFF7C1FC1248FFF7BEFC074B012291
:1018D0001A6001220649124801F035FB00BF20378B
:1018E000BD46BDE8B08300BF9402002098020020EE
:1018F000E802002034010020C8020020A8020020D5
:10190000B0020020B8020020C0020020A002002087
:10191000286F0008840100203C6F00080C000020A4
:101920004C020020E800002080B400AF72B600BF77
:10193000FEE7000080B586B000AF78603960002314
:101940007B612849786802F0E7F9F860FB683B6141
:1019500040E07B69012B05D13869FFF7BDFC0246E9
:101960003B681A607B69022B05D13869FFF7B4FC2C
:1019700002463B685A607B69032B08D13B691B78A0
:101980001846FFF79DFC0346DAB23B681A727B6982
:10199000042B05D13869FFF79FFC02463B68DA60EB
:1019A0007B69052B03D13B691A783B681A747B6904
:1019B000062B07D13B691B781846FFF781FC0246CE
:1019C0003B685A610749002002F0A6F938617B693B
:1019D00001337B613B69002BBBD1012318461837CB
:1019E000BD4680BD406F000880B586B000AF78600E
:1019F00000237B6100233B61642002F073F80346FF
:101A0000FB607968F86802F069F90BE03B69FA68F5
:101A100013441B782C2B02D17B6901337B613B691A
:101A200001333B617B69062BF0DD3B69013B3B6188
:101A30003B69FA68134400221A70FB68184618378D
:101A4000BD4680BD80B586B000AF786039600323A5
:101A50003B6100237B6128E07B699B007A6813442B
:101A60001B681649184602F041F90346002B19D0AD
:101A70007B699B007A6813441B681149184602F081
:101A800035F90346002B0DD07B699B007A6813441F
:101A90001B681846FFF7A8FFF8603B681946F8680E
:101AA000FFF748FF7B6901337B617A693B699A42A2
:101AB000D2DB00BF00BF1837BD4680BD446F0008B1
:101AC000486F000880B483B000AF0E4B9B690D4A8D
:101AD00043F0010393610B4B9B6903F001037B60AF
:101AE0007B68084BDB69074A43F08053D361054BA1
:101AF000DB6903F080533B603B6800BF0C37BD4699
:101B000080BC70470010024080B588B000AF78609C
:101B100007F1100300221A605A609A60DA607B684D
:101B20001B68204A934239D11F4B9B691E4A43F4DC
:101B3000804393611C4B9B6903F48043FB60FB680B
:101B4000194B9B69184A43F004039361164B9B6938
:101B500003F00403BB60BB684FF400733B610223D6
:101B60007B610323FB6107F1100319460F4800F066
:101B700083FB4FF480633B6100237B610023BB61E7
:101B800007F110031946094800F076FB00220021F6
:101B9000252000F088FA252000F0A1FA00BF2037A8
:101BA000BD4680BD003801400010024000080140E1
:101BB00080B400AFFEE780B400AFFEE780B400AFB2
:101BC000FEE780B400AFFEE780B400AFFEE780B46C
:101BD00000AF00BFBD4680BC704780B400AF00BFFF
:101BE000BD4680BC704780B400AF00BFBD4680BC1E
:101BF000704780B500AF00F03FF900BF80BD000026
:101C000080B500AF024801F0C3F900BF80BD00BF3E
:101C10004C02002080B400AF01231846BD4680BCB2
:101C2000704780B582B000AF7860396001F030FF56
:101C3000034616221A604FF0FF3318460837BD4698
:101C400080BD80B582B000AF78604FF0FF3178681A
:101C5000FFF7E7FFFEE780B586B000AFF860B96038
:101C60007A6000237B610AE0AFF300800146BB6825
:101C70005A1CBA60CAB21A707B6901337B617A69F7
:101C80007B689A42F0DB7B6818461837BD4680BDFA
:101C900080B586B000AFF860B9607A6000237B61E0
:101CA00009E0BB685A1CBA601B781846AFF3008085
:101CB0007B6901337B617A697B689A42F1DB7B68DF
:101CC00018461837BD4680BD80B483B000AF786039
:101CD0004FF0FF3318460C37BD4680BC704780B4C8
:101CE00083B000AF786039603B684FF400525A60AF
:101CF000002318460C37BD4680BC704780B483B0C3
:101D000000AF7860012318460C37BD4680BC704791
:101D100080B485B000AFF860B9607A6000231846DF
:101D20001437BD4680BC704780B586B000AF786080
:101D3000144A154BD31A7B617B693B61134B1B68BB
:101D4000002B02D1114B124A1A60104B1A687B68A3
:101D500013443A699A4207D201F09AFE03460C22D4
:101D60001A604FF0FF3309E0084B1B68FB60074B1C
:101D70001A687B681344054A1360FB6818461837D5
:101D8000BD4680BD0028002000040000080300209C
:101D90002003002080B400AF00BFBD4680BC704768
:101DA000FFF7F8FF0B480C490C4A002302E0D45817
:101DB000C4500433C4188C42F9D3094A094C002397
:101DC00001E013600432A242FBD301F067FEFFF78B
:101DD000B9FB7047000000202C0200204874000866
:101DE0003002002020030020FEE7000080B500AF95
:101DF000084B1B68074A43F010031360032000F0F0
:101E000047F90F2000F008F8FFF75CFE00231846A2
:101E100080BD00BF0020024080B582B000AF786076
:101E2000124B1A68124B1B7819464FF47A73B3FBA6
:101E3000F1F3B2FBF3F3184600F05FF90346002B11
:101E400001D001230EE07B680F2B0AD800227968AD
:101E50004FF0FF3000F027F9064A7B68136000233B
:101E600000E0012318460837BD4680BDBC010020B4
:101E7000C4010020C001002080B400AF054B1B78D6
:101E80001A46054B1B681344034A136000BFBD4646
:101E900080BC7047C40100200C03002080B400AF58
:101EA000024B1B681846BD4680BC70470C030020DF
:101EB00080B584B000AF7860FFF7F0FFB8607B6852
:101EC000FB60FB68B3F1FF3F05D00A4B1B781A4655
:101ED000FB681344FB6000BFFFF7E0FF0246BB68EE
:101EE000D31AFA689A42F7D800BF00BF1037BD4630
:101EF00080BD00BFC401002080B485B000AF786011
:101F00007B6803F00703FB600C4BDB68BB60BA68BF
:101F10004FF6FF031340BB60FB681A02BB68134314
:101F200043F0BF6343F40033BB60044ABB68D36033
:101F300000BF1437BD4680BC704700BF00ED00E015
:101F400080B400AF044BDB681B0A03F0070318469C
:101F5000BD4680BC704700BF00ED00E080B483B098
:101F600000AF0346FB7197F90730002B0BDBFB79C1
:101F700003F01F02064997F907305B09012000FAB8
:101F800002F241F8232000BF0C37BD4680BC7047E9
:101F900000E100E080B483B000AF03463960FB711C
:101FA00097F90730002B0ADB3B68DAB20C4997F946
:101FB00007301201D2B20B4483F800230AE03B68D9
:101FC000DAB20849FB7903F00F03043B1201D2B2E5
:101FD0000B441A7600BF0C37BD4680BC704700BF6B
:101FE00000E100E000ED00E080B489B000AFF860EF
:101FF000B9607A60FB6803F00703FB61FB69C3F11A
:102000000703042B28BF0423BB61FB690433062BA1
:1020100002D9FB69033B00E000237B614FF0FF32F4
:10202000BB6902FA03F3DA43BB681A407B699A4042
:102030004FF0FF317B6901FA03F3D9437B680B4012
:10204000134318462437BD4680BC704780B582B024
:1020500000AF78607B68013BB3F1807F01D301233F
:102060000FE00A4A7B68013B53600F214FF0FF30BD
:10207000FFF790FF054B00229A60044B07221A607D
:10208000002318460837BD4680BD00BF10E000E0C1
:1020900080B582B000AF78607868FFF72DFF00BF91
:1020A0000837BD4680BD80B586B000AF0346B96035
:1020B0007A60FB7300237B61FFF742FF78617A68E7
:1020C000B9687869FFF790FF024697F90F3011461B
:1020D0001846FFF75FFF00BF1837BD4680BD80B5CB
:1020E00082B000AF0346FB7197F907301846FFF73F
:1020F00035FF00BF0837BD4680BD80B582B000AF58
:1021000078607868FFF7A2FF034618460837BD4697
:1021100080BD80B485B000AF78600023FB737B681E
:1021200093F82130DBB2022B08D07B6804229A633B
:102130007B68002283F82020012320E07B681B6855
:102140001A687B681B6822F00E021A607B681B68A5
:102150001A687B681B6822F001021A607B681A6C9F
:102160007B68DB6B012101FA02F25A607B68012275
:1021700083F821207B68002283F82020FB7B18460F
:102180001437BD4680BC704780B584B000AF78601E
:102190000023FB737B6893F82130DBB2022B05D060
:1021A0007B6804229A630123FB7351E07B681B6800
:1021B0001A687B681B6822F00E021A607B681B6835
:1021C0001A687B681B6822F001021A607B681B6832
:1021D000224A934229D07B681B68214A934222D02D
:1021E0007B681B681F4A93421AD07B681B681E4A93
:1021F000934212D07B681B681C4A93420AD07B68CA
:102200001B681B4A934202D14FF480130EE04FF03B
:1022100080730BE04FF4803308E04FF4805305E007
:102220004FF4807302E0102300E00123114A536051
:102230007B68012283F821207B68002283F820201C
:102240007B685B6B002B03D07B685B6B786898477F
:10225000FB7B18461037BD4680BD00BF080002401A
:102260001C0002403000024044000240580002407E
:102270006C0002400000024080B48BB000AF786078
:10228000396000237B6200233B6269E101227B6AA3
:1022900002FA03F3FB613B681B68FA691340BB61F8
:1022A000BA69FB699A4240F058813B685B689A4A78
:1022B00093425ED0984A934275D8984A934258D038
:1022C000964A93426FD8964A934252D0944A934288
:1022D00069D8944A93424CD0924A934263D8924A26
:1022E000934246D0904A93425DD8122B2AD8122BA3
:1022F00059D801A252F823F0732300084D23000897
:102300005F230008A1230008A7230008A7230008D3
:10231000A7230008A7230008A7230008A723000875
:10232000A7230008A7230008A7230008A723000865
:10233000A7230008A7230008A723000855230008A7
:1023400069230008794A934213D02CE03B68DB688C
:102350003B6229E03B68DB6804333B6224E03B6876
:10236000DB6808333B621FE03B68DB680C333B6291
:102370001AE03B689B68002B02D104233B6213E008
:102380003B689B68012B05D108233B627B68FA6997
:102390001A6109E008233B627B68FA695A6103E02D
:1023A00000233B6200E000BFBB69FF2B01D87B68C4
:1023B00001E07B6804337B61BB69FF2B02D87B6A39
:1023C0009B0002E07B6A083B9B003B617B691A68CB
:1023D0000F213B6901FA03F3DB431A40396A3B6979
:1023E00001FA03F31A437B691A603B685B6803F0E8
:1023F0008053002B00F0B1804D4B9B694C4A43F059
:10240000010393614A4B9B6903F00103BB60BB6806
:10241000484A7B6A9B08023352F82330FB607B6A90
:1024200003F003039B000F2202FA03F3DB43FA6875
:102430001340FB607B68404A934213D07B683F4A5D
:1024400093420DD07B683E4A934207D07B683D4A59
:10245000934201D1032306E0042304E0022302E0B7
:10246000012300E000237A6A02F003029200934005
:10247000FA681343FB602F497B6A9B080233FA68B2
:1024800041F823203B685B6803F48013002B06D0DF
:102490002D4B9A682C49BB6913438B6006E02A4B8D
:1024A0009A68BB69DB43284913408B603B685B68D3
:1024B00003F40013002B06D0234BDA682249BB69D2
:1024C0001343CB6006E0204BDA68BB69DB431E494F
:1024D0001340CB603B685B6803F40033002B06D0ED
:1024E000194B5A681849BB6913434B6006E0164BF9
:1024F0005A68BB69DB43144913404B603B685B6817
:1025000003F48033002B21D00F4B1A680E49BB69AE
:1025100013430B6021E000BF0000321000003110B7
:102520000000221000002110000012100000111005
:10253000001002400000014000080140000C014072
:102540000010014000140140000401400B4B1A68C8
:10255000BB69DB43094913400B607B6A01337B6233
:102560003B681A687B6A22FA03F3002B7FF48EAE75
:1025700000BF00BF2C37BD4680BC7047000401403F
:1025800080B586B000AF78607B68002B01D1012355
:1025900072E27B681B6803F00103002B00F0878068
:1025A000924B5B6803F00C03042B0CD08F4B5B68E1
:1025B00003F00C03082B12D18C4B5B6803F48033BF
:1025C000B3F5803F0BD1894B1B6803F40033002B1C
:1025D0006CD07B685B68002B68D101234CE27B6880
:1025E0005B68B3F5803F06D1804B1B687F4A43F49C
:1025F000803313602EE07B685B68002B0CD17B4B33
:102600001B687A4A23F480331360784B1B68774A3F
:1026100023F4802313601DE07B685B68B3F5A02F73
:102620000CD1724B1B68714A43F4802313606F4BCB
:102630001B686E4A43F4803313600BE06B4B1B68DE
:102640006A4A23F480331360684B1B68674A23F49B
:10265000802313607B685B68002B13D0FFF71EFCA0
:10266000386108E0FFF71AFC02463B69D31A642B75
:1026700001D9032300E25D4B1B6803F40033002BF8
:10268000F0D014E0FFF70AFC386108E0FFF706FC21
:1026900002463B69D31A642B01D90323ECE1534B67
:1026A0001B6803F40033002BF0D100E000BF7B680F
:1026B0001B6803F00203002B63D04C4B5B6803F0F4
:1026C0000C03002B0BD0494B5B6803F00C03082B69
:1026D0001CD1464B5B6803F48033002B16D1434B6F
:1026E0001B6803F00203002B05D07B681B69012BDC
:1026F00001D00123C0E13D4B1B6823F0F8027B6849
:102700005B69DB00394913430B603AE07B681B6966
:10271000002B20D0364B01221A60FFF7BFFB386137
:1027200008E0FFF7BBFB02463B69D31A022B01D935
:102730000323A1E12D4B1B6803F00203002BF0D013
:102740002A4B1B6823F0F8027B685B69DB00274992
:1027500013430B6015E0264B00221A60FFF79EFB27
:10276000386108E0FFF79AFB02463B69D31A022B57
:1027700001D9032380E11D4B1B6803F00203002BEA
:10278000F0D17B681B6803F00803002B3AD07B680C
:102790009B69002B19D0174B01221A60FFF77EFBB3
:1027A000386108E0FFF77AFB02463B69D31A022B37
:1027B00001D9032360E10D4B5B6A03F00203002B98
:1027C000F0D0012000F0CEFA1CE00A4B00221A6083
:1027D000FFF764FB38610FE0FFF760FB02463B69DF
:1027E000D31A022B08D9032346E100BF0010024090
:1027F0000000424280044242924B5B6A03F00203B3
:10280000002BE9D17B681B6803F00403002B00F068
:10281000A6800023FB758B4BDB6903F08053002BF4
:102820000DD1884BDB69874A43F08053D361854BD8
:10283000DB6903F08053BB60BB680123FB75824BEF
:102840001B6803F48073002B18D17F4B1B687E4AF2
:1028500043F480731360FFF721FB386108E0FFF752
:102860001DFB02463B69D31A642B01D9032303E104
:10287000754B1B6803F48073002BF0D07B68DB681A
:10288000012B06D16F4B1B6A6E4A43F001031362A2
:102890002DE07B68DB68002B0CD16A4B1B6A694A10
:1028A00023F001031362674B1B6A664A23F004039B
:1028B00013621CE07B68DB68052B0CD1614B1B6A43
:1028C000604A43F0040313625E4B1B6A5D4A43F0A7
:1028D000010313620BE05B4B1B6A5A4A23F00103AE
:1028E0001362584B1B6A574A23F0040313627B6838
:1028F000DB68002B15D0FFF7D1FA38610AE0FFF74B
:10290000CDFA02463B69D31A41F28832934201D98B
:102910000323B1E04B4B1B6A03F00203002BEED004
:1029200014E0FFF7BBFA38610AE0FFF7B7FA024696
:102930003B69D31A41F28832934201D903239BE0C9
:10294000404B1B6A03F00203002BEED1FB7D012BF1
:1029500005D13C4BDB693B4A23F08053D3617B6854
:10296000DB69002B00F08780364B5B6803F00C03BB
:10297000082B61D07B68DB69022B46D1334B0022E8
:102980001A60FFF78BFA386108E0FFF787FA024612
:102990003B69D31A022B01D903236DE0294B1B6835
:1029A00003F00073002BF0D17B681B6AB3F5803F06
:1029B00008D1244B5B6823F400327B689B68214973
:1029C00013434B601F4B5B6823F474127B68196AD6
:1029D0007B685B6A0B431B4913434B601B4B012213
:1029E0001A60FFF75BFA386108E0FFF757FA024612
:1029F0003B69D31A022B01D903233DE0114B1B681D
:102A000003F00073002BF0D035E0104B00221A6069
:102A1000FFF744FA386108E0FFF740FA02463B69E5
:102A2000D31A022B01D9032326E0064B1B6803F0BF
:102A30000073002BF0D11EE07B68DB69012B07D10E
:102A4000012319E000100240007000406000424283
:102A50000B4B5B68FB60FB6803F480327B681B6A8E
:102A60009A4206D1FB6803F470127B685B6A9A4253
:102A700001D0012300E0002318461837BD4680BD71
:102A80000010024080B584B000AF786039607B6888
:102A9000002B01D10123D0E06A4B1B6803F0070330
:102AA0003A689A4210D9674B1B6823F007026549C0
:102AB0003B6813430B60634B1B6803F007033A68E2
:102AC0009A4201D00123B8E07B681B6803F002033F
:102AD000002B20D07B681B6803F00403002B05D07B
:102AE000594B5B68584A43F4E06353607B681B684A
:102AF00003F00803002B05D0534B5B68524A43F4A4
:102B000060535360504B5B6823F0F0027B689B6816
:102B10004D4913434B607B681B6803F00103002B96
:102B200040D07B685B68012B07D1474B1B6803F4DF
:102B30000033002B15D101237FE07B685B68022BFB
:102B400007D1414B1B6803F00073002B09D101230F
:102B500073E03D4B1B6803F00203002B01D10123FE
:102B60006BE0394B5B6823F003027B685B68364996
:102B700013434B60FFF792F9F8600AE0FFF78EF914
:102B80000246FB68D31A41F28832934201D90323EB
:102B900053E02D4B5B6803F00C027B685B689B0085
:102BA0009A42EBD1274B1B6803F007033A689A421D
:102BB00010D2244B1B6823F0070222493B681343C1
:102BC0000B60204B1B6803F007033A689A4201D060
:102BD000012332E07B681B6803F00403002B08D05C
:102BE000194B5B6823F4E0627B68DB68164913438A
:102BF0004B607B681B6803F00803002B09D0124B65
:102C00005B6823F460527B681B69DB000E49134349
:102C10004B6000F021F802460B4B5B681B0903F088
:102C20000F030A49CB5C22FA03F3094A1360094BEC
:102C30001B681846FFF7F0F8002318461037BD460A
:102C400080BD00BF0020024000100240506F00080D
:102C5000BC010020C001002080B487B000AF002379
:102C6000FB600023BB6000237B6100237B600023AB
:102C70003B611E4B5B68FB60FB6803F00C03042B9D
:102C800002D0082B03D027E0194B3B6127E0FB68FB
:102C90009B0C03F00F03174AD35C7B60FB6803F4C3
:102CA0008033002B10D0114B5B685B0C03F00103E9
:102CB000114AD35CBB607B680D4A03FB02F2BB6820
:102CC000B2FBF3F37B6104E07B680C4A02FB03F385
:102CD0007B617B693B6102E0054B3B6100BF3B6967
:102CE00018461C37BD4680BC704700BF001002402C
:102CF00000127A00686F0008786F000800093D0034
:102D000080B400AF024B1B681846BD4680BC7047BC
:102D1000BC01002080B500AFFFF7F2FF0246054B73
:102D20005B681B0A03F007030349CB5C22FA03F339
:102D3000184680BD00100240606F000880B500AFEB
:102D4000FFF7DEFF0246054B5B68DB0A03F0070373
:102D50000349CB5C22FA03F3184680BD0010024001
:102D6000606F000880B485B000AF78600A4B1B68C4
:102D70000A4AA2FB03235B0A7A6802FB03F3FB60A7
:102D800000BFFB685A1EFA60002BF9D100BF00BFDC
:102D90001437BD4680BC7047BC010020D34D621083
:102DA00080B582B000AF78607B68002B01D1012331
:102DB00042E07B6893F84130DBB2002B06D17B68A0
:102DC000002283F840207868FEF79EFE7B6824226C
:102DD00083F841207B681B68DA687B681B6822F4F3
:102DE0000052DA60786800F0C5FD7B681B681A69DC
:102DF0007B681B6822F490421A617B681B685A69E1
:102E00007B681B6822F02A025A617B681B68DA68BB
:102E10007B681B6842F40052DA607B6800225A64C7
:102E20007B68202283F841207B68202283F842209F
:102E30007B6800225A63002318460837BD4680BDD0
:102E400080B58AB002AFF860B9603B601346FB8082
:102E500000237B61FB6893F84130DBB2202B6DD1FE
:102E6000BB68002B02D0FB88002B01D1012366E058
:102E7000FB6800225A64FB68212283F84120FFF797
:102E80000DF87861FB68FA889A84FB68FA88DA841E
:102E9000FB689B68B3F5805F08D1FB681B69002B5A
:102EA00004D10023FB61BB68BB6103E0BB68FB612D
:102EB0000023BB612AE03B6800937B6900228021EC
:102EC000F86800F014FB0346002B01D0032336E022
:102ED000FB69002B0BD1BB691B881A46FB681B687A
:102EE000C2F308025A60BB690233BB6107E0FB69A9
:102EF0001A78FB681B685A60FB690133FB61FB6849
:102F0000DB8C9BB2013B9AB2FB68DA84FB68DB8CFA
:102F10009BB2002BCFD13B6800937B6900224021FC
:102F2000F86800F0E4FA0346002B01D0032306E022
:102F3000FB68202283F84120002300E0022318468A
:102F40002037BD4680BD80B584B000AFF860B96061
:102F50001346FB80FB6893F84230DBB2202B12D182
:102F6000BB68002B02D0FB88002B01D101230BE0B2
:102F7000FB6800221A63FB881A46B968F86800F0FB
:102F800024FB034600E0022318461037BD4680BDEF
:102F900080B5BAB000AF78607B681B681B68C7F863
:102FA000E4307B681B68DB68C7F8E0307B681B682F
:102FB0005B69C7F8DC300023C7F8D8300023C7F8B6
:102FC000D430D7F8E43003F00F03C7F8D830D7F87F
:102FD000D830002B0FD1D7F8E43003F02003002BBA
:102FE00009D0D7F8E03003F02003002B03D0786835
:102FF00000F001FC5BE2D7F8D830002B00F0DE8057
:10300000D7F8DC3003F00103002B06D1D7F8E0300D
:1030100003F49073002B00F0D180D7F8E43003F074
:103020000103002B0BD0D7F8E03003F48073002BA2
:1030300005D07B685B6C43F001027B685A64D7F86B
:10304000E43003F00403002B0BD0D7F8DC3003F09E
:103050000103002B05D07B685B6C43F002027B68A8
:103060005A64D7F8E43003F00203002B0BD0D7F8F2
:10307000DC3003F00103002B05D07B685B6C43F070
:1030800004027B685A64D7F8E43003F00803002B8D
:1030900011D0D7F8E03003F02003002B05D1D7F88A
:1030A000DC3003F00103002B05D07B685B6C43F040
:1030B00008027B685A647B685B6C002B00F0F2812D
:1030C000D7F8E43003F02003002B08D0D7F8E03025
:1030D00003F02003002B02D0786800F08CFB7B68A3
:1030E0001B685B6903F04003002B14BF012300231E
:1030F000DBB2C7F8D4307B685B6C03F00803002BAD
:1031000003D1D7F8D430002B4FD0786800F096FA6E
:103110007B681B685B6903F04003002B41D07B6830
:103120001B681433C7F89C30D7F89C3053E8003F35
:10313000C7F89830D7F8983023F04003C7F8D0305C
:103140007B681B681433D7F8D020C7F8A820C7F8CD
:10315000A430D7F8A410D7F8A82041E80023C7F876
:10316000A030D7F8A030002BD9D17B68DB6B002BC7
:1031700013D07B68DB6B7E4A5A637B68DB6B184637
:10318000FFF702F80346002B16D07B68DB6B5B6B06
:103190007A68D26B104698470EE0786800F093F991
:1031A0000AE0786800F08FF906E0786800F08BF9A3
:1031B0007B6800225A6475E100BF73E17B681B6B7A
:1031C000012B40F04F81D7F8E43003F01003002BBF
:1031D00000F04881D7F8E03003F01003002B00F036
:1031E00041810023BB607B681B681B68BB607B68F8
:1031F0001B685B68BB60BB687B681B685B6903F02E
:103200004003002B00F0B6807B68DB6B1B685B68BB
:10321000A7F8BE30B7F8BE30002B00F045817B68C0
:103220009B8DB7F8BE209A4280F03E817B68B7F84C
:10323000BE20DA857B68DB6B9B69202B00F08880E1
:103240007B681B680C33C7F88830D7F8883053E8A0
:10325000003FC7F88430D7F8843023F48073C7F870
:10326000B8307B681B680C33D7F8B820C7F89420B7
:10327000C7F89030D7F89010D7F8942041E8002391
:10328000C7F88C30D7F88C30002BD9D17B681B68FD
:1032900014337B677B6F53E8003F3B673B6F23F042
:1032A0000103C7F8B4307B681B681433D7F8B42027
:1032B000C7F88020FB67F96FD7F8802041E800232A
:1032C000BB67BB6F002BE1D17B681B6814333B6687
:1032D0003B6E53E8003FFB65FB6D23F04003C7F8EE
:1032E000B0307B681B681433D7F8B020FA66BB6631
:1032F000B96EFA6E41E800237B667B6E002BE3D14A
:103300007B68202283F842207B6800221A637B6856
:103310001B680C33FB64FB6C53E8003FBB64BB6C65
:1033200023F01003C7F8AC307B681B680C33D7F868
:10333000AC20BA657B65796DBA6D41E800233B65C9
:103340003B6D002BE3D17B68DB6B1846FEF7E1FE9B
:103350007B6802225A637B689A8D7B68DB8D9BB207
:10336000D31A9BB21946786800F0B6F89CE000BF0B
:10337000013700087B689A8D7B68DB8D9BB2D31A7E
:10338000A7F8CE307B68DB8D9BB2002B00F08E80DF
:10339000B7F8CE30002B00F089807B681B680C33B7
:1033A000BB63BB6B53E8003F7B637B6B23F4907381
:1033B000C7F8C8307B681B680C33D7F8C8207A641C
:1033C0003B64396C7A6C41E80023FB63FB6B002B98
:1033D000E3D17B681B6814337B627B6A53E8003F50
:1033E0003B623B6A23F00103C7F8C4307B681B686B
:1033F0001433D7F8C4203A63FB62F96A3A6B41E8A8
:103400000023BB62BB6A002BE3D17B68202283F8D8
:1034100042207B6800221A637B681B680C333B6187
:103420003B6953E8003FFB60FB6823F01003C7F8DB
:10343000C0307B681B680C33D7F8C020FA61BB61D1
:10344000B969FA6941E800237B617B69002BE3D10C
:103450007B6802225A63B7F8CE301946786800F0CC
:103460003BF823E0D7F8E43003F08003002B09D0C9
:10347000D7F8E03003F08003002B03D0786800F029
:1034800053F914E0D7F8E43003F04003002B0ED0DA
:10349000D7F8E03003F04003002B08D0786800F044
:1034A00092F904E000BF02E000BF00E000BFE8378F
:1034B000BD4680BD80B483B000AF786000BF0C37DC
:1034C000BD4680BC704780B483B000AF786000BF59
:1034D0000C37BD4680BC704780B483B000AF7860C5
:1034E0000B467B8000BF0C37BD4680BC704780B563
:1034F00090B000AFF860B9603B601346FB7150E0DC
:10350000BB6CB3F1FF3F4CD0BB6C002B07D0FEF778
:10351000C5FC02463B68D31ABA6C9A4241D2FB689A
:103520001B680C33BB62BB6A53E8003F7B627B6A5B
:1035300023F4D073FB63FB681B680C33FA6B7A636C
:103540003B63396B7A6B41E80023FB62FB6A002B1B
:10355000E5D1FB681B6814337B617B6953E8003F4E
:103560003B613B6923F00103BB63FB681B681433B9
:10357000BA6B3A62FB61F9693A6A41E80023BB61C0
:10358000BB69002BE5D1FB68202283F84120FB6852
:10359000202283F84220FB68002283F84020032386
:1035A0000FE0FB681B681A68BB681340BA689A4250
:1035B0000CBF01230023DBB21A46FB799A429FD04D
:1035C000002318464037BD4680BD80B485B000AFAB
:1035D000F860B9601346FB80FB68BA689A62FB68C2
:1035E000FA889A85FB68FA88DA85FB6800225A64B3
:1035F000FB68222283F84220FB681B69002B07D05E
:10360000FB681B68DA68FB681B6842F48072DA604A
:10361000FB681B685A69FB681B6842F001025A612B
:10362000FB681B68DA68FB681B6842F02002DA60FE
:10363000002318461437BD4680BC704780B495B04F
:1036400000AF78607B681B680C337B637B6B53E84F
:10365000003F3B633B6B23F49073FB647B681B6808
:103660000C33FA6C3A64FB63F96B3A6C41E8002363
:10367000BB63BB6B002BE5D17B681B6814333B62DB
:103680003B6A53E8003FFB61FB6923F00103BB6425
:103690007B681B681433BA6CFA62BB62B96AFA6A57
:1036A00041E800237B627B6A002BE5D17B681B6BC2
:1036B000012B19D17B681B680C33FB60FB6853E856
:1036C000003FBB60BB6823F010037B647B681B6812
:1036D0000C337A6CBA617B617969BA6941E800237D
:1036E0003B613B69002BE5D17B68202283F84220B7
:1036F0007B6800221A6300BF5437BD4680BC704708
:1037000080B584B000AF78607B685B6AFB60FB6863
:103710000022DA85FB680022DA84F868FFF7D3FE1E
:1037200000BF1037BD4680BD80B485B000AF786063
:103730007B6893F84130DBB2212B3ED17B689B68DC
:10374000B3F5805F14D17B681B69002B10D17B68B7
:103750001B6AFB60FB681B881A467B681B68C2F308
:1037600008025A607B681B6A9A1C7B681A6208E030
:103770007B681B6A591C7A6811621A787B681B681F
:103780005A607B68DB8C9BB2013B9BB27A6819461E
:10379000D184002B0FD17B681B68DA687B681B68BB
:1037A00022F08002DA607B681B68DA687B681B683D
:1037B00042F04002DA60002300E00223184614378A
:1037C000BD4680BC704780B582B000AF78607B6832
:1037D0001B68DA687B681B6822F04002DA607B684D
:1037E000202283F841207868FFF764FE0023184602
:1037F0000837BD4680BD80B58CB000AF78607B686F
:1038000093F84230DBB2222B40F0AE807B689B689D
:10381000B3F5805F17D17B681B69002B13D10023A0
:10382000FB627B689B6ABB627B681B685B689BB2C0
:10383000C3F308039AB2BB6A1A807B689B6A9A1C1E
:103840007B689A6226E07B689B6AFB620023BB620E
:103850007B689B68B3F5805F07D07B689B68002B13
:103860000AD17B681B69002B06D17B681B685B68EB
:10387000DAB2FB6A1A7008E07B681B685B68DBB22F
:1038800003F07F03DAB2FB6A1A707B689B6A5A1CEA
:103890007B689A627B68DB8D9BB2013B9BB27A6846
:1038A0001946D185002B5DD17B681B68DA687B687F
:1038B0001B6822F02002DA607B681B68DA687B688C
:1038C0001B6822F48072DA607B681B685A697B6827
:1038D0001B6822F001025A617B68202283F8422093
:1038E0007B6800225A637B681B6B012B35D17B6898
:1038F00000221A637B681B680C337B617B6953E889
:10390000003F3B613B6923F010037B627B681B68CF
:103910000C337A6A3A62FB61F9693A6A41E800233A
:10392000BB61BB69002BE5D17B681B681B6803F09A
:103930001003102B0AD10023FB607B681B681B68F7
:10394000FB607B681B685B68FB60FB687B689B8D2A
:1039500019467868FFF7C0FD02E07868FDF71CFFA4
:10396000002302E0002300E0022318463037BD4662
:1039700080BD000080B584B000AF78607B681B68B4
:103980001B6923F440517B68DA687B681B680A4333
:103990001A617B689A687B681B691A437B685B695C
:1039A0001343BB607B681B68DB6823F4B05323F0D0
:1039B0000C037A681268B9680B43D3607B681B6894
:1039C0005B6923F440717B689A697B681B680A43D2
:1039D0005A617B681B682C4A934203D1FFF7AEF90A
:1039E000F86002E0FFF796F9F860FA6813469B006A
:1039F00013449A001A447B685B689B00B2FBF3F3A4
:103A0000224AA2FB03235B091901FA6813469B00B3
:103A100013449A001A447B685B689B00B2FBF3F284
:103A20001A4BA3FB02035B09642000FB03F3D31AC8
:103A30001B013233154AA2FB03235B0903F0F00399
:103A40001944FA6813469B0013449A001A447B6891
:103A50005B689B00B2FBF3F20C4BA3FB02035B0918
:103A6000642000FB03F3D31A1B013233074AA2FB85
:103A700003235B0903F00F027B681B680A449A600A
:103A800000BF1037BD4680BD003801401F85EB5197
:103A9000014B1868704700BFC801002070B50026B0
:103AA0000C4D0D4C641BA410A64209D103F0C2F9C1
:103AB00000260A4D0A4C641BA410A64205D170BD15
:103AC00055F8043B98470136EEE755F8043B984714
:103AD0000136F2E7407400084074000840740008A2
:103AE00044740008024B0146186800F073B800BF28
:103AF000C801002003460244934200D1704703F8F6
:103B0000011BF9E738B50546002940D051F8043CBF
:103B10000C1F002BB8BFE41800F08AF91C4A136888
:103B200033B9636014602846BDE8384000F086B9B8
:103B3000A34208D9206821188B4201BF19685B682D
:103B400009182160EDE71A465B680BB1A342FAD968
:103B500011685018A0420BD12068014450188342CC
:103B60001160E0D118685B68014411605360DAE7C6
:103B700002D90C232B60D6E7206821188B4201BFA5
:103B800019685B680918216063605460CBE738BD31
:103B90001003002070B50E4E0C463168054611B971
:103BA00000F08CF830602146284600F087F8431C6E
:103BB0000AD0C41C24F00304A04207D0211A2846CE
:103BC00000F07CF8013001D14FF0FF34204670BD89
:103BD000140300202DE9F041CD1C25F00305083524
:103BE0000C2D38BF0C25002D074601DBA94205D955
:103BF0000C2300263B603046BDE8F0812E4E00F0DD
:103C000017F933681C4634BB29463846FFF7C2FF14
:103C1000431C04464DD134682646002E40D123680B
:103C20003146384604EB030800F048F880453AD1A5
:103C3000216803356D1A25F0030508350C2D38BFB2
:103C40000C2538462946FFF7A5FF01302BD0236805
:103C50002B4423600EE02268521B1ED40B2A16D977
:103C60006119A342256018BF5960636808BF3160BD
:103C700062514B60384604F10B0600F0DFF826F085
:103C80000706231DF21AB6D09B1BA350B3E7626848
:103C9000A3420CBF32605A60ECE723466468B2E787
:103CA00034467668B9E70C2338463B6000F0C6F826
:103CB000A1E72560DEE700BF1003002038B5002330
:103CC000054D044608462B60FEF72EF8431C02D132
:103CD0002B6803B1236038BD18030020034611F898
:103CE000012B03F8012B002AF9D170470A7870B52F
:103CF0006AB970BD9A4209D10C46054614F8013FD5
:103D0000002BF6D015F8016F9E42F7D001300378F2
:103D1000002BEFD11846ECE7164B2DE9F0411F6858
:103D20000546BC6D0E46ECB95020FFF7DBFE02469F
:103D3000B86520B95721104B104800F049F8C0E988
:103D40000044C0E90244C0E90444C0E90A44C0E9AF
:103D50000C44C0E90E44C0E91044C0E91244846137
:103D60000477446231462846BA6D0123BDE8F0412C
:103D700000F006B8C80100208070000897700008A5
:103D8000F0B508B9106888B104460F46204614F80B
:103D9000015B17F8016B1EB965B92846156005E08F
:103DA000B542F6D1002BF0D114600370F0BD1C4673
:103DB0000CE015B90E4614F8013B16F8015BAB4256
:103DC000F7D1002BF3D0002304F8013C1460EDE799
:103DD0001FB514461A46094B05461B68D8684CB1F6
:103DE000074BCDE9013400912B46064900F00EF84F
:103DF00000F0D8FB044B1C46F3E700BFC8010020CD
:103E0000F4700008017100082F7100080EB403B5AA
:103E1000014603AB054853F8042B0068019300F0FA
:103E20003BF802B05DF804EB03B07047C801002016
:103E3000014800F073BD00BF1C030020014800F0E2
:103E40006EBD00BF1C030020936810B4013B002B23
:103E5000936007DA9469A34201DB0A2902D110BCFE
:103E600000F0E0BA1368581C10601970084610BCC6
:103E70007047F8B506460F461446D518AC4201D136
:103E8000002007E03A46304614F8011BFFF7DCFF3C
:103E9000431CF3D1F8BD00002DE9F04F0D46144648
:103EA000984606469DB018B183690BB900F098FC9E
:103EB000894B9D421BD175686B6ED90705D4AB89C0
:103EC0009A0502D4A86D00F029FDAB891B0701D526
:103ED0002B69EBB92946304600F0F6FAC0B16B6E9B
:103EE000DC070ED54FF0FF301DB0BDE8F08F7B4BE7
:103EF0009D4201D1B568DFE7794B9D4208BFF56867
:103F0000DAE7AB899805EDD4A86D00F008FDE9E784
:103F10000023099320238DF8293030234FF0010925
:103F2000CDF80C80DFF8BC818DF82A3023469A4604
:103F300013F8012B0AB1252AF9D1BAEB040B0BD0E7
:103F40005B46224629463046FFF793FF013000F0DA
:103F5000AA80099A5A4409929AF80030002B00F07E
:103F6000A28000234FF0FF32CDE905230AF1010AB8
:103F7000049307938DF853301A935446052214F88E
:103F8000011B584800F032FD049AD8B9D10644BF4D
:103F900020238DF85330130744BF2B238DF8533063
:103FA0009AF800302A2B15D0544600204FF00A0C06
:103FB000079A214611F8013B303B092B4ED9B0B18D
:103FC000079214E0A0EB080309FA03F31343A24697
:103FD0000493D2E7039B191D1B680391002BBBBF01
:103FE0005B4242F0020207930793B8BF0492237822
:103FF0002E2B0CD163782A2B35D1039B02341A1D4A
:104000001B680392002BB8BF4FF0FF330593DFF816
:10401000D8A003225046217800F0E8FC40B14023AC
:10402000A0EB0A0003FA00F0049B0134034304935D
:1040300014F8011B06222D488DF8281000F0D6FC3C
:1040400000283FD02A4B1BBB039B073323F00703F9
:1040500008330393099B3B44099367E70C4601200F
:104060000CFB0232A5E700234FF00A0C194601347D
:104070000593204610F8012B303A092A03D9002B6A
:10408000C5D00591C3E7044601230CFB0121F0E7ED
:1040900003AB00932A463046164B04A9AFF30080C9
:1040A0000746781CD6D16B6ED90705D4AB899A0523
:1040B00002D4A86D00F033FCAB895B063FF512AF6C
:1040C000099811E703AB00932A463046094B04A92F
:1040D00000F082F8E4E700BF84710008A4710008D2
:1040E0006471000830710008367100083A710008E8
:1040F00000000000733E00082DE9F047164699467F
:104100008A680B6907469342B8BF1346336091F83B
:1041100043200C46DDF820800AB101333360236868
:10412000990642BF336802333360256815F00605EF
:1041300006D104F1190AE36832689B1AAB4228DC05
:1041400094F84320131E226818BF012392062DD431
:104150004946384604F14302C047013020D0236865
:10416000E56803F00603042B18BF002532684FF002
:104170000006A36808BFAD1A226908BF25EAE575E5
:104180009342C4BF9B1AED181A34B5421AD10020CD
:1041900008E00123524649463846C047013003D162
:1041A0004FF0FF30BDE8F0870135C4E73020E1185B
:1041B00081F843005A1C94F845102244023382F8D7
:1041C0004310C5E70123224649463846C04701301F
:1041D000E6D00136D9E700002DE9FF470F7E914672
:1041E000782F80460C469A460C9D01F1430207D871
:1041F000622F0AD8002F00F0D980582F00F0A48039
:1042000004F1420584F842703AE0A7F16303152BEC
:10421000F6D801A151F823F0714200088542000848
:104220000142000801420008014200080142000862
:1042300085420008014200080142000801420008CE
:104240000142000893430008B54200087543000886
:104250000142000801420008B5430008014200087D
:10426000B542000801420008014200087D430008F1
:104270002B681A1D1B682A6004F1420584F842303D
:104280000123A4E020682968060601F104030AD589
:104290000E682B60002E03DA2D23764284F843301B
:1042A0000A235E4819E00E6810F0400F2B6018BF1B
:1042B00036B2EFE72B682068191D2960010601D589
:1042C0001E6802E04606FBD51E886F2F0CBF082330
:1042D0000A235248002184F843106568002DA8BFC6
:1042E0002168A560A4BF21F0040121600EB9002D52
:1042F0004DD01546B6FBF3F103FB1167C75D05F81A
:10430000017D3746BB420E46F4D9082B0BD12368FA
:10431000DE0708D5236961689942DEBF302305F8BE
:10432000013C05F1FF35521B22614B4621464046B8
:10433000CDF800A003AAFFF7DFFE01304CD14FF00B
:10434000FF3004B0BDE8F087344881F84570296833
:10435000236851F8046B29601D0614D5DF0744BF9C
:1043600043F0200323601EB9236823F02003236059
:104370001023AFE7236843F0200323607823284805
:1043800084F84530E3E7590648BFB6B2E6E715467C
:10439000BBE72B682668181D6169286035061B6815
:1043A00001D5196002E07006FBD51980002315467F
:1043B0002361BAE72B6800211A1D2A601D68626814
:1043C000284600F013FB08B1401B6060636823615E
:1043D000002384F84330A8E72A464946404623692B
:1043E000D0470130ABD023689B0713D4E068039B10
:1043F0009842B8BF1846A4E70123324649464046D2
:10440000D04701309BD00135E36803995B1AAB427A
:10441000F2DCEBE7002504F11906F5E7417100082D
:1044200052710008F8B50E461446054618B1836966
:104430000BB900F0D5F9214B9C422BD16C68A369D4
:10444000A360A3891A072FD523696BB3236920685A
:10445000F6B2C01A63693746834204DC2146284617
:1044600000F02AF930BBA3680130013BA360236848
:104470005A1C22601E706369834204D0A389DB0743
:1044800006D50A2E04D12146284600F015F988B930
:104490003846F8BD0A4B9C4201D1AC68CFE7094BC6
:1044A0009C4208BFEC68CAE72146284600F00CF899
:1044B0000028CBD04FF0FF37EAE700BF8471000837
:1044C000A471000864710008324B70B51D6806467F
:1044D0000C4625B1AB6913B9284600F081F92E4B83
:1044E0009C420FD16C68A389B4F90C2019072CD415
:1044F000DD0611D40923336042F040034FF0FF3052
:10450000A3813EE0254B9C4201D1AC68EBE7244BF4
:104510009C4208BFEC68E6E7580712D5616B41B1D1
:1045200004F14403994202D03046FFF7EBFA00232E
:104530006363A38923F02403A381002363602369B9
:104540002360A38943F00803A38123694BB9A3899E
:1045500003F42073B3F5007F03D02146304600F00A
:1045600005FAA089B4F90C2010F001030AD0002349
:10457000A36063695B42A361236943B910F08000C3
:10458000BAD170BD810758BF6369A360F4E700200A
:10459000F7E700BFC801002084710008A47100087B
:1045A00064710008062008B500F056FA0120FDF7F6
:1045B00048FB00008A89F8B5054610070C4657D419
:1045C0004B68002B04DC0B6C002B01DC0020F8BDD9
:1045D000E66A002EFAD0002312F480522F682B6076
:1045E00032D0606DA3895A0705D56368C01A636B22
:1045F0000BB1236CC01A00230246E66A2846216AE2
:10460000B047431CA38906D129681D292CD8294A03
:10461000CA40D60728D5002262602269D9042260E8
:1046200004D5421C01D12B6803B96065616B2F6012
:104630000029CBD004F14403994202D02846FFF769
:1046400061FA00206063C2E7216A01232846B0476F
:10465000411CC7D12B68002BC4D01D2B01D0162BB9
:1046600001D12F60B2E7A38943F04003A381AEE7F5
:104670000F69002FAAD0930718BF00230E6808BF48
:104680004B69F61B0F608B60002E9FDD33463A4668
:104690002846216AD4F828C0E047002806DCA38910
:1046A0004FF0FF3043F04003A38190E70744361AF0
:1046B000EAE700BF0100402038B50B6905460C460B
:1046C00013B90025284638BD18B183690BB900F02D
:1046D00087F8144B9C421BD16C68B4F90C30002B4A
:1046E000EFD0626ED00704D4990502D4A06D00F01B
:1046F00015F928462146FFF75DFF636E0546DA0788
:10470000E0D4A3899B05DDD4A06D00F008F9D9E7BA
:10471000054B9C4201D1AC68DFE7044B9C4208BFCB
:10472000EC68DAE784710008A4710008647100087D
:10473000002310B50446C0E90033C0E904338360A8
:1047400081814366C2818361194608225C30FFF78C
:10475000D1F9054B24626362044BA362044BE3620C
:10476000044B236310BD00BF914A0008B34A000800
:10477000EB4A00080F4B0008014900F0AFB800BF3A
:10478000B9460008682270B54D1E55430E4605F126
:104790007401FFF71FFA044640B10021C0E900167A
:1047A0000C30A06005F16802FFF7A4F9204670BD47
:1047B000014800F0B3B800BF1D030020014800F01D
:1047C000AEB800BF1D030020014800F0A7B800BF2D
:1047D0001E030020014800F0A2B800BF1E03002005
:1047E00010B50446FFF7F0FFA3691BB1BDE8104008
:1047F000FFF7F0BFC4E912332365134B134A1B685C
:10480000A262A34208BF0123204608BFA36100F0B3
:104810001FF86060204600F01BF8A060204600F002
:1048200017F800220421E0606068FFF781FF012291
:104830000921A068FFF77CFF02221221E068FFF740
:1048400077FF0123A361D1E77C7000087947000856
:10485000F8B50746FFF7ACFF1E4B1E68B36913B9E6
:104860003046FFF7BDFF4836D6E90134013B03D59A
:1048700033680BB33668F7E7B4F90C50D5B9164B6B
:1048800004F15800E360656600F047F8FFF796FF13
:1048900008222946C4E90155C4E904552560A561EB
:1048A00004F15C00FFF726F9C4E90D55C4E912557F
:1048B0002046F8BD6834D9E704213846FFF762FF87
:1048C000044630600028D5D1FFF778FF0C233B6009
:1048D000EEE700BF7C7000080100FFFF2DE9F84300
:1048E00006468846002700F14804D4E90195B9F14D
:1048F000010905D52468002CF7D13846BDE8F883B6
:10490000AB89012B07D9B5F90E30013303D0294605
:104910003046C04707436835E9E77047704770473E
:1049200070B50E46B1F90E10144600291D4696B01A
:1049300008DA0022B6F90C302A601A0610D44FF4B7
:1049400080630EE06A4600F009F90028F1DB019A65
:1049500002F47042A2F500535A425A412A60EEE72F
:1049600040230020236016B070BD00008B8973B512
:104970009D0706460C4607D504F1470323602361D3
:104980000123636102B070BD6A4601ABFFF7C8FF47
:10499000009905463046FFF71DF948B9B4F90C30C7
:1049A0009A05EFD423F0030343F00203A381E3E766
:1049B0000D4BB362A389206043F08003A381009B69
:1049C00020616361019B5BB13046B4F90E1000F0C9
:1049D000D7F828B1A38923F0030343F00103A3818F
:1049E000A0890543A581CDE779470008034610B5A6
:1049F000C9B202449342184601D1002003E0047872
:104A000001338C42F6D110BD1F2938B504460D463E
:104A100004D9162303604FF0FF3038BD426C12B149
:104A200052F821304BB9204600F030F82A460146B2
:104A30002046BDE8384000F017B8012B0AD0591CB9
:104A400003D1162303600120E7E70024284642F83B
:104A5000254098470020E0E7024B01461868FFF721
:104A6000D3BF00BFC801002038B50023064D04465F
:104A7000084611462B60FDF7D4F8431C02D12B6881
:104A800003B1236038BD00BF18030020FDF7C2B892
:104A900010B50C46B1F90E1000F094F80028ABBF29
:104AA000636DA3891B1823F48053ACBF6365A38196
:104AB00010BD2DE9F0411F468B890546DB050C46EC
:104AC000164605D502230022B1F90E1000F068F851
:104AD000A389324623F48053A38128463B46B4F988
:104AE0000E10BDE8F04100F017B810B50C46B1F952
:104AF0000E1000F055F8431CA38915BF606523F420
:104B0000805343F48053A38118BFA38110BDB1F932
:104B10000E1000F013B8000038B5044608461146E0
:104B20000022054D2A601A46FDF7B2F8431C02D157
:104B30002B6803B1236038BD1803002038B500236B
:104B4000054D044608462B60FDF7BEF8431C02D114
:104B50002B6803B1236038BD1803002038B500234B
:104B6000064D0446084611462B60FDF7B8F8431C75
:104B700002D12B6803B1236038BD00BF18030020A9
:104B800038B50023054D044608462B60FDF7B6F8FE
:104B9000431C02D12B6803B1236038BD18030020E9
:104BA00038B50446084611460022054D2A601A46CB
:104BB000FDF7AEF8431C02D12B6803B1236038BD6A
:104BC0001803002038B50446084611460022054D5A
:104BD0002A601A46FDF73FF8431C02D12B6803B147
:104BE000236038BD1803002030B5204A21F000436F
:104BF000934287B006DC0022002307B0BDE83040B6
:104C000001F0A2B91A4A934205DD02460B46FBF7B2
:104C1000ABFA07B030BD02AA00F0EEFE00F00300D0
:104C2000012809D0022811D0B8B9DDE90423DDE953
:104C3000020101F089F9ECE70090DDE90423DDE9E8
:104C4000020101F081FD01F10041E2E7DDE9042309
:104C5000DDE9020101F078F9F5E70123DDE9020160
:104C60000093DDE9042301F06FFDD2E7FB21E93F6A
:104C7000FFFFEF7F30B5204A21F00043934287B019
:104C800006DC002300220093002301F05DFD06E016
:104C90001A4A934205DD02460B46FBF765FA07B058
:104CA00030BD02AA00F0A8FE00F00300012809D0E0
:104CB00002280ED0C0B9DDE9020101230093DDE92D
:104CC0000423E2E7DDE90423DDE9020101F03CF918
:104CD000E5E70123DDE902010093DDE9042301F0AA
:104CE00033FD01F10041DAE7DDE90423DDE90201EA
:104CF00001F02AF9F5E700BFFB21E93FFFFFEF7F55
:104D000000F08EB82DE9F84314461D4680468946CA
:104D100000F05AF9224606460F462B462046294601
:104D2000FBF774FEC8BB0022002340464946FBF750
:104D30003BFEB8B10022002320462946FBF734FE93
:104D4000002841D12046294601F06FFF28B30022F8
:104D5000002320462946FBF731FEF0B1FEF798FE0E
:104D6000222319E03046394601F05FFFC8B94046BA
:104D7000494601F05AFFA0B12046294601F055FFEF
:104D800078B132463B4630463946FBF73FFE0028B5
:104D9000E4D0FEF77DFE2123036030463946BDE8AE
:104DA000F8830022002330463946FBF7FDFD00283A
:104DB000F3D04046494601F038FF0028EDD02046A8
:104DC000294601F032FFC8E70026014FE5E700BFA2
:104DD0000000F03FF8B506460F4601F005F83246F0
:104DE00004460D463B4630463946FBF70FFE90B968
:104DF0000022002330463946FBF7E0FD58B1FEF7AC
:104E000047FE212300220360002310461946FBF7CA
:104E10008DFC04460D4620462946F8BD00000000E2
:104E20002DE9F84F9246994623F000421F46CAF1F9
:104E30000003DFF884E143EA0A0342EAD3737345CF
:104E400004460D4608D8464221F00043064343EA93
:104E5000D67676458C4608D952464B46204629469A
:104E6000FBF784F904460D4619E009F1404606F5C2
:104E7000801656EA0A0603D1BDE8F84F01F048BD96
:104E8000BE1706F0020646EAD17653EA00010AD1BF
:104E9000022E67D0032E02D13BA5D5E9004520465E
:104EA0002946BDE8F88F52EA0A0106D1BCF1000F8D
:104EB00063DA37A5D5E90045F1E772450FD1934292
:104EC00006F1FF3607D1022E50D83C4B03EBC60645
:104ED000D6E90045E3E7022E4CD8394BF6E7734597
:104EE000E4D09B1AB3F1747F4FEA235220DA002FEB
:104EF00001DA3C3220DB52464B4620462946FBF77E
:104F000015FC01F08FFE01F003FD04460D46012E55
:104F100015D0022E17D0002EC1D01FA3D3E9002335
:104F200020462946FBF720F91DA3D3E9002316E00C
:104F30001DA5D5E90045EAE700240025E7E705F1CE
:104F400000431D46ABE714A3D3E9002320462946BE
:104F5000FBF70AF902460B4611A1D1E90001FBF764
:104F600003F97FE70EA5D5E9004598E710A5D5E937
:104F7000004594E70024002591E70BA5D5E90045FD
:104F80008DE700BFAFF30080182D4454FB2109C00A
:104F9000182D4454FB21F9BF075C143326A6A13C0D
:104FA000182D4454FB210940182D4454FB21F93F8E
:104FB000182D4454FB21E93F0000F07FC871000820
:104FC000E0710008000000002DE9F04F93B0CDE93A
:104FD0000223DDE9022727F00046894656EA02014E
:104FE000804611D1031889F4002252419942824B24
:104FF000934180F0B984DDE9022340464946FBF73E
:10500000B5F883468C466FE07C4B29F000449C4207
:105010004D46824606DC01D10028ECD19E4201DCDF
:105020000FD172B105F1404505F5801555EA0A0525
:10503000E1D1DDE90232DB1882F4002252419D42C7
:10504000D5E7002D39DA6E4B9E4252DCA3F1547342
:105050009E4240F39C843315A3F2FF33142B0FDDE3
:10506000C3F1340322FA03F101FA03F3934240F04F
:105070008E8401F00101C1F10203009382B15DE071
:10508000002A59D1C3F1140346FA03F101FA03F3DC
:10509000B34240F0798401F00101C1F102030093B1
:1050A000584B9E4232D1002F80F26A8442464B46D2
:1050B00000205449FBF73AFBA3E700230093002AA2
:1050C0003CD14E4B9E42EBD104F1404303F580139B
:1050D00053EA0A0300F048844B4B9C420BDD002F3F
:1050E000C0F24884DDE902BC5846614613B0BDE811
:1050F000F08F0223E2E7002F4FF0000B4FF0000C7F
:10510000F2DADDE902B303F1004CEDE7B7F1804FCD
:1051100006D142464B4640464946FBF7DDF970E76B
:105120003A4B9F420AD1002D08DB4046494613B056
:10513000BDE8F04F00F058BE0023009340464946BA
:1051400001F070FD83468C46BAF1000F28D124B1DE
:105150002C4B25F040429A4222D1002F07DA5A46C2
:10516000634600202749FBF7E1FA83468C46002D71
:10517000BADA009B04F1404404F58014234308D1BB
:105180005A46634658466146FAF7EEFF02460B461A
:1051900090E7009B012BA7D10CF100439C46A3E7AD
:1051A000EB0F013B0C930C9A009B134304D1424636
:1051B0004B4640464946E7E7154B9E4240F3F68092
:1051C00003F104739E42104B09DD9C420CDC002F5E
:1051D0000CDA002013B0BDE8F04F01F092BB9C4206
:1051E000F5DB084B9C4215DD002FF2DC002013B0EC
:1051F000BDE8F04F01F080BB0000F0FF0000F07F41
:10520000FFFF3F430000F03FFFFFEF3F0000E03FA4
:105210000000E0416146002258465F4BFAF7A4FFC8
:1052200055A3D3E9002304460D46FBF755F954A3D3
:10523000D3E9002306460F4620462946FBF74CF9E2
:10524000002282468B4620462946544BFBF744F900
:1052500002460B464CA1D1E90001FAF785FF224630
:105260002B46FBF739F902460B4600204C49FAF76A
:105270007BFF22462B468046894620462946FBF77F
:105280002BF902460B4640464946FBF725F940A359
:10529000D3E90023FBF720F902460B465046594656
:1052A000FAF762FF4FF0000A02460B4604460D462D
:1052B00030463946FAF75AFF32463B4650468B464F
:1052C000FAF752FF02460B4620462946FAF74CFFF2
:1052D000DDE90267009B0C9A013B13434FF0000687
:1052E0004FF000020CBF2F4B2B4B04460D46DDE95F
:1052F0000201CDE9002332463B46FAF735FF52461C
:105300005B46FBF7E9F8DDE9022380468946204643
:105310002946FBF7E1F802460B4640464946FAF7B4
:1053200025FF32463B468046894650465946FBF7A4
:10533000D3F804460D460B46024649464046CDE9A1
:105340000245FAF713FF184B824699420F460E4664
:1053500040F3E58201F13F4303F5E003034300F02E
:10536000DF81DDE9000100220023FBF727FB003885
:1053700018BF01202EE700BF000000604715F73F6F
:1053800044DF5DF80BAE543E555555555555D53F48
:10539000FE822B654715F73F0000F03F0000D03F2D
:1053A0000000E03F0000F0BFFFFF8F40D24B002223
:1053B0002B4043B958466146D04BFBF78DF86FF050
:1053C000340283460C462315A3F2FF3313440B9398
:1053D000CB4BC4F3130444F07F559C4245F4401575
:1053E00008DDC84B9C4240F399810B9BA5F58015C5
:1053F00001330B930026F3000D93C34B584603EB88
:10540000C603D3E9003429461A46CDE908342346B9
:10541000FAF7AAFEDA462B465246CDE90E01DDE93F
:105420000801FAF7A3FE02460B460020B749FBF736
:105430007DF902460B46CDE91001DDE90E01FBF7CF
:105440004BF8CDE90601DDE90634CDE9043400234B
:105450000022AB466D1045F00055049305F500257C
:10546000DDE9048905EB86434046494614461D465E
:10547000FBF732F802460B46DDE90E01FAF774FE3F
:10548000DDE9082306460F4620462946FAF76CFE5A
:1054900002460B4650465946FAF766FE42464B46D0
:1054A000FBF71AF802460B4630463946FAF75CFE1F
:1054B000DDE91023FBF710F8DDE90623CDE908014B
:1054C00010461946FBF708F879A3D3E900230446F0
:1054D0000D46FBF701F878A3D3E90023FAF746FE5F
:1054E00022462B46FAF7F8FF75A3D3E90023FAF713
:1054F0003DFE22462B46FAF7EFFF73A3D3E90023C4
:10550000FAF734FE22462B46FAF7E6FF70A3D3E9FA
:105510000023FAF72BFE22462B46FAF7DDFF6EA397
:10552000D3E90023FAF722FE224606460F462B4611
:1055300020462946FAF7D0FF02460B463046394648
:10554000FAF7CAFF04460D46DDE9060142464B461E
:10555000FAF70CFEDDE90823FAF7BEFF22462B46D8
:10556000FAF704FE424606460F464B464046494679
:10557000FAF7B2FF0022664B82468B46FAF7F6FD39
:1055800032463B46FAF7F2FD00240D4622460B4612
:1055900040464946FAF7A0FF002280468946204649
:1055A00029465B4BFAF7E0FD52465B46FAF7DCFD15
:1055B00002460B4630463946FAF7D6FDDDE90623AA
:1055C000FAF78AFF224606460F46DDE908012B4618
:1055D000FAF782FF02460B4630463946FAF7C6FD17
:1055E000002406460F4602460B4640464946FAF757
:1055F000BDFD3BA3D3E9002320460D46FAF76CFF1F
:1056000042464B46CDE9060120462946FAF7ACFD55
:1056100002460B4630463946FAF7A6FD32A3D3E9D7
:105620000023FAF759FF32A3D3E9002306460F46B9
:1056300020462946FAF750FF02460B4630463946C7
:10564000FAF794FD0D9A334B4FF0000A1344D3E957
:105650000023FAF78BFD80460B988946FAF7D2FEB5
:1056600004460D460D9A2C4B1344D3E9006742467D
:10567000DDE906014B46FAF779FD32463B46FAF77B
:1056800075FD22462B46FAF771FD22462B46504601
:105690008B46FAF769FD32463B46FAF765FDDDE9D0
:1056A0000623FAF761FD02460B46404649460DE6E1
:1056B000EF4E454A287ECA3F65DBC9934A86CD3FF7
:1056C00001411DA96074D13F4D268F515555D53FDD
:1056D000FFAB6FDBB66DDB3F033333333333E33F75
:1056E000000000E009C7EE3FFD033ADC09C7EE3FCA
:1056F000F5015B14E02F3EBE0000F07F0000404348
:105700008E98030079B60B00F87100080000F03F96
:1057100000000840187200080872000801266AE6B6
:105720009DA3D3E9002340464946FAF71FFD2246D0
:10573000CDE904012B4650463946FAF715FD0246DD
:105740000B46DDE90401FBF757F900287FF409AEA9
:10575000A34A26F00043934240F301814FF4801A9C
:1057600000201B15A3F2FE334AFA03F33344C3F3BC
:105770000A529C4FA2F2FF321741C3F3130A23EAE5
:105780000701C2F114024AF4801A0B464AFA02FADF
:10579000002E024629462046B8BFCAF1000AFAF791
:1057A000E3FCCDE90201DDE90201002442464B465B
:1057B000FAF7DCFC7AA3D3E9002320460D46FAF77A
:1057C0008BFEDDE9022306460F4620462946FAF7FE
:1057D000CBFC02460B4640464946FAF7C5FC72A38D
:1057E000D3E90023FAF778FE71A3D3E900238046BA
:1057F000894620462946FAF76FFE02460B46404688
:105800004946FAF7B3FC04460D4602460B463046BD
:105810003946FAF7ABFC32463B4680468946FAF7F2
:10582000A3FC02460B4620462946FAF79DFC424659
:1058300006460F464B4640464946FAF74DFE5EA3E4
:10584000D3E9002304460D46FAF746FE5CA3D3E9EC
:105850000023FAF789FC22462B46FAF73DFE5AA3AD
:10586000D3E90023FAF782FC22462B46FAF734FEEE
:1058700057A3D3E90023FAF777FC22462B46FAF721
:105880002BFE55A3D3E90023FAF770FC22462B46E2
:10589000FAF722FE02460B4640464946FAF764FCF8
:1058A00004460D4602460B4640464946FAF714FEAA
:1058B0000022CDE902014FF0804320462946FAF745
:1058C00053FC02460B46DDE90201FAF72FFF324690
:1058D00004460D463B4640464946FAF7FDFD324632
:1058E0003B46FAF743FC02460B4620462946FAF7A8
:1058F0003BFC42464B46FAF737FC02460B4600207B
:105900003949FAF731FC01EB0A54B4F5801F29DA62
:10591000524601F011FADDE90023FFF7FEBB334BDD
:1059200021F000479F427FF713AF314B0B440343F5
:1059300009D0DDE9000100220023FBF73FF8003821
:1059400018BF012053E422462B46FAF70DFC4246CD
:105950004B46FBF747F800283FF4FAAEE9E74FF073
:10596000000A20E72146D6E74FF0000BDFF878C0A9
:10597000FFF7BABB4FF0000B4FF0000CFFF7B4BBC2
:1059800040464946FFF73DBB0092FFF789BB002325
:10599000FFF773BBAFF30080FE822B654715973C82
:1059A00000000000432EE63FEF39FAFE422EE63FAC
:1059B000396CA80C615C20BED0A4BE726937663E0B
:1059C000F16BD2C541BDBB3E2CDE25AF6A56113FFF
:1059D00093BDBE166CC1663F3E5555555555C53FE6
:1059E0000000E03FFFFF0F000000F03FFFCB9040C2
:1059F00000346F3F000000002DE9F04F1446C44A08
:105A000021F0004A8DB09245049107DC002200236A
:105A1000C4E90001C4E90223002524E0BD4A9245FF
:105A200072DC049BBC4D002BABA3D3E9002336DD15
:105A3000FAF79AFBAA4506460F4618D0A8A3D3E961
:105A40000023FAF791FB02460B463046C4E90023D7
:105A50003946FAF789FBA2A3D3E90023FAF784FBBE
:105A60000125C4E9020128460DB0BDE8F08F9EA3D0
:105A7000D3E90023FAF778FB9DA3D3E90023064678
:105A80000F46FAF771FB02460B463046C4E9002385
:105A90003946FAF769FB96A3D3E90023DEE7FAF764
:105AA00065FBAA4506460F4616D08DA3D3E9002311
:105AB000FAF75CFB02460B463046C4E90023394640
:105AC000FAF752FB86A3D3E90023FAF74FFB4FF016
:105AD000FF35C4E90201C6E783A3D3E90023FAF73F
